:1000000000000420750300005D0300005F03000092
:1000100061030000630300006503000000000000AE
:100020000000000000000000000000006703000066
:1000300069030000000000006B0300006D03000076
:10004000651C00006F0300006115000049220000DC
:100050006F0300006F03000005200000191B000063
:100060006F0300006F0300006F0300006F030000C8
:100070006F0300006F0300006F0300006F030000B8
:100080006F030000591300006F0300006F030000AE
:100090006F0300006F0300006F0300006F03000098
:1000A0006F0300006F0300006F0300006F03000088
:1000B0006F0300006F03000000000000000000005C
:1000C0006F0300006F0300006F0300006F03000068
:1000D000C51C00006F0300006F0300006F030000E9
:1000E0006F0300006F0300006F03000000000000BA
:1000F000000000006F030000000000006F0300001C
:1001000000000000000000000000000000000000EF
:1001100000000000000000000000000000000000DF
:1001200000000000000000000000000000000000CF
:1001300000000000000000000000000000000000BF
:1001400000000000000000000000000000000000AF
:10015000000000000000000000000000000000009F
:10016000000000000000000000000000000000008F
:10017000000000000000000000000000000000007F
:10018000000000000000000000000000000000006F
:10019000000000000000000000000000000000005F
:1001A000000000000000000000000000000000004F
:1001B000000000000000000000000000000000003F
:1001C000000000000000000000000000000000002F
:1001D000000000000000000000000000000000001F
:1001E000000000000000000000000000000000000F
:1001F00000000000000000000000000000000000FF
:10020000354936480A1A02D0072291438D463449AF
:1002100034480A1A06D00722914381F30988022242
:1002200082F3148830483149314A00F044F83148AB
:100230003149324A00F03FF831483249324A00F041
:100240003AF832483249334A00F035F832483349F7
:10025000334A00F030F833483349344A00F02BF881
:1002600033483449344A00F026F8344834490022EF
:1002700000F02CF833483449002200F027F83348C6
:100280003349091A082902DB002202604160314A21
:1002900090471F481F49884205D00268043003B4C4
:1002A000904703BCF7E700208646EC46002000217B
:1002B000294A9047FEE7884207D0521A05D00378B2
:1002C00001300B700131013AF9D17047884202D0F8
:1002D00002700130FAE770470000042000E00320BC
:1002E00000000420000004201C400000000000204A
:1002F00040000020D0030000D00300002A3300009B
:100300001C4000000000002000000020C03300005E
:10031000C0330000C0330000C0330000C033000011
:10032000C0330000C0330000C03300001A4000009A
:100330005C40000040000020400000204000002001
:1003400091090020940900209409002094090020BC
:10035000942900209D0300002D260000FEE7FEE703
:10036000FEE7FEE7FEE7FEE7FEE7FEE7FEE7FEE765
:1003700000F002B8FFF7FCBF0F484FF007018843B9
:1003800085460E4880470E48016841F470010160BF
:10039000BFF34F8FBFF36F8FFFF732BF09480A4992
:1003A0000A4A884207D0521A05D0037801300B70F0
:1003B0000131013AF9D1704700000420F929000009
:1003C00088ED00E0C03300000000002000000020A5
:1003D0007047000007B5044B0093044A402300F027
:1003E00032F803B05DF804FBF10300004100002087
:1003F0002DE9F84388461446B2B10F4B0F4E032542
:10040000002743F00109224608EB0701002002F013
:10041000A5FA0744241A48B933782BB14FF47A402F
:10042000C847013D02D13570BDE8F8830123337020
:10043000002CE8D1F8E700BFC033000040000020E6
:10044000704702F0BBBAF0B595B01D461646084697
:100450000C4600F051FF1A9B0D93CDE9086500256D
:100460002B46082205A920460A958DF82C500C959C
:1004700000F05EFF079B0293069B03939DF81430E8
:100480008DF8115003F00302012A1DD1BDF814208C
:10049000059DC3F3C203C2F383168DF81030B2007A
:1004A00008230EA9204600F043FFC5F3952508ABAD
:1004B0000093324602AB0EA9284600F01BFB2046F3
:1004C00000F01EFF15B0F0BD022AF8D1BDF816509D
:1004D000C3F3C203C5F389158DF810300827082D22
:1004E0002E4628BF08263B4632460EA9204600F07D
:1004F0001FFFAD1B08AB02AA31460EA8374400F01F
:100500005DFB002DEBD1DAE708B5FFF79AFF044851
:10051000042100F059FA034B01225A7108BD00BFB3
:100520009C33000000000020037813F0040216D072
:1005300003F00303012B03D0022B09D001207047E5
:100540000A6800880232C0F3831002440A60F5E7AB
:100550000B684288023303EB92130B60EEE7104600
:10056000704700002DE9F04FDFF810A10F4685B06D
:100570000446861C0020154600F0D6FBDAF804205D
:100580003A60DAF8083003F580739B1A0AF21C47C8
:100590000AF583690AF21448B34219D30020002DEA
:1005A00068D004F00F039B0143F0050363F30F00D1
:1005B000DAF80430DAB2033233444AF82200002079
:1005C000CAF8043000F0B2FB012005B0BDE8F08F9E
:1005D0000121384600F0CFFB484600F0E4FB4046DE
:1005E00000F0E1FBDAF808000090C0B203300AEB3B
:1005F00080006946FFF798FF009B30BBDAB20AEB38
:100600008202D16801919A1C0133DBB20AEB8303A9
:100610000092D3F80CB001F00303012B22D0022B7F
:1006200015D08346404600F0C1FB10B1009BCAF8CC
:1006300008305946384600F09EFBDAF80830DAF800
:10064000042003F580739B1AA6E7D8B2CEE7BDF865
:100650000630C3F3891303334FEA1B4B02EB9303BA
:100660000093DFE7BDF80430C3F383134FEA1B4B5D
:100670001344F5E7A40544F0060099E7540100206F
:10068000064B074810B500221A7000F0EEFD044634
:1006900010B9044800F056FE204610BD5401002059
:1006A000AC330000FC33000030B50A4C71B10A4A8B
:1006B0000A49121BD20800239A4201D1002030BD02
:1006C00031F82350854202D00133F5E7034654F850
:1006D0003300F4E72C3300009C33000000000020BE
:1006E000094B013903EBC000032909D8DFE801F009
:1006F0000A02040604207047007970474079704769
:1007000000207047022070472C330000034BD3E9D0
:100710000130C31A58425841704700BF54010020AD
:100720002DE9FF41FFF7F2FF0546002840F0E98080
:10073000754CC4F81804BFF34F8FA3680093DBB265
:10074000033304EB83006946FFF7EEFE009B18B10C
:10075000D4F81824002A5AD0DAB2991C013304EBD9
:100760008202DBB204EB8303D268DB68029302F0FF
:100770000303022B0192009154D1BDF80630634867
:10078000C3F38917502F3E4628BF502606F10801B3
:1007900066F38F13C1F30901ADF8063000F07DFD5B
:1007A0000546002800F0988000F0A6FD00230822EE
:1007B00001A9284600F0B2FD0099CB43DBB201331A
:1007C000C9B20331B6EB830F4FEA830204EB810118
:1007D00025D95FFA82F80823A6EB0806284600F020
:1007E0009DFDF6B208F10803494903F0FC033246C7
:1007F000284600F093FD009B033703EB9707009713
:10080000D4F81834002B43D1D4F8106453E0626854
:100810009A4294D8A260284604B0BDE8F08108232B
:100820003246E5E7012B57D1BDF804303748C3F312
:100830008311062928BF062161F38913023101F0D3
:100840000F018900ADF8043000F027FD05460028AF
:1008500042D000F051FD0023082201A9284600F0F3
:100860005DFD0026BDF80420C2F38312B30096425A
:1008700003F10803C4D200994A1CC9B203310092A3
:1008800004EB81010422284600F048FD0136E9E727
:10089000284600F035FDFFF739FF80F00100C5B2B2
:1008A000B9E7F3685B7923B1336829461B683046A2
:1008B0009847F3681E68002EF3D1284600F020FD0B
:1008C000304600F031FAD4F818340BB9009BA3601D
:1008D000002000F02BFADEE7D4F8104454B90D4B99
:1008E0000D480E49C01AC008000440F0020000F094
:1008F0005DF8D0E7236820469B689847E3681C684A
:10090000ECE7002587E700BF54010020AC3300006E
:10091000600100202C3300006C330000E433000041
:100920002DE9F34704460E46924601A901221846D6
:100930009946FFF717FE1B4F10B3019D4FF00008BB
:10094000AA1CC84508EB020123D11748002100F07A
:10095000EFF980F31000000440EA1440E4006B1C3F
:1009600004F03804DBB2EDB244F0010407EB83037A
:10097000033544EA881444EA8624D86047F82540C1
:100980003B781BB1FFF7CCFE0028FBD102B0BDE8DD
:10099000F087C9B207EB81015AF82830CB6008F123
:1009A0000108CEE7540100207005002000231A46FC
:1009B000FFF7B6BF07B5CDE9002302236A46FFF76C
:1009C000AFFF03B05DF804FB30B50F4CD4F8102432
:1009D00003460020114631B9D96808714AB9C4F8F4
:1009E00010340A6030BDC9680D79854206D00968A7
:1009F000F1E7D26814680C601360F3E701300A284D
:100A0000E8D14FF0FF30EDE75401002038B5084B36
:100A10000125D3F810441D7004B938BDE3685D7139
:100A2000236820465B689847E3681C68F4E700BFCA
:100A30005401002030B5C38885B004460D4633B15B
:100A4000144A00921449154A284600F009FA217AFE
:100A500005291DD0637A4BB1A088FFF741FE104BEA
:100A6000104953F82020284600F0FAF9227A0E4B5C
:100A7000A08853F8222003920021FFF715FE039A65
:100A80000A490346284605B0BDE8304000F0E8B901
:100A900005B030BD283400001034000008340000D8
:100AA000943400002D340000B834000030340000CD
:100AB00007B503460846197A052911D05B7A2BB190
:100AC000094A0A49019000F0CBF9019808490190C0
:100AD00000F0C6F9019803B05DF804EB00F0B5B979
:100AE000002AF8D0F2E700BF283400002D340000BF
:100AF000253400002DE9F04385B01F460C9D0023EE
:100B000095F80C902B7306460C46904629463846BD
:100B1000FFF790FFB8F1060F09D8DFE808F00412DC
:100B2000181F283340003146284600F099F900226A
:100B300029463846FFF7BCFF85F80C9005B0BDE8A4
:100B4000F08322683146284600F08AF9EFE7D4E9BD
:100B500000233146284600F083F9E8E7A3680093B4
:100B60003146D4E90023284600F07AF9DFE7E3684C
:100B70000193A36800933146D4E90023284600F08E
:100B80006FF9D4E723690293E3680193A3680093A4
:100B90003146D4E90023284600F062F9C7E76369CB
:100BA000039323690293E3680193A368009331469A
:100BB000D4E90023284600F053F9B8E708292DE9C5
:100BC000F74F80460E4617461C463DD800251B7B36
:100BD0002573214610460193FFF72CFFDFF88CA008
:100BE000DFF88CB0AE4232D918F8052059462046BD
:100BF00000F036F90135082DF4D11B49DFF874A057
:100C0000DFF874B0204600F02BF94FF000094E4594
:100C100024D918F809507E2D1ED8284602F0D2FAA1
:100C2000002814BF2A462E225946204600F018F903
:100C300009F10109B9F1080FE9D10122214638462D
:100C4000FFF736FF019B237303B0BDE8F08F5146D9
:100C5000204600F005F9CDE72E22E5E75146204673
:100C600000F0FEF8E4E700BF443400004034000028
:100C70003A34000042340000463400001FB5002121
:100C8000039001AA44F20100CDE9011100F004F83B
:100C900005B05DF804FB000038B572B6FFF7B6FE8C
:100CA000FFF73EFD0028FBD1104B114C114D1249AE
:100CB000E41AE408240444F00100FFF777FED5F8B5
:100CC000F030DB0700D500BE0C4944F00200FFF70E
:100CD0006DFEBFF34F8FEA68094B02F4E0621343E5
:100CE000EB60BFF34F8F00BFFDE700BF2C33000068
:100CF0006C33000000ED00E0CC340000D83400007C
:100D00000400FA0572B6024A136801331360704793
:100D10000C060020034A1368013B136003B962B656
:100D2000704700BF0C060020FFF7ECBFFFF7F2BFD3
:100D300010B5034653E8000F0A4643E8002494F038
:100D4000000FF7D110BD10B5034653E8002F42EA5B
:100D5000010043E8000494F0000FF6D110BD10B577
:100D6000034653E8000F00EA010243E8002494F030
:100D7000000FF6D110BD10B5034653E8002F02EB6B
:100D8000010043E8000494F0000FF6D110BD10B547
:100D9000034653E8002FA2EB010043E8000494F05F
:100DA000000FF6D110BD0121FFF7CDBF0021FFF7E5
:100DB000D6BF10B590B1D0E9012301689B1ADBB210
:100DC0000A60013BDBB2FF2B026802D100201071E8
:100DD00010BD11684C1C14600B70F2E70E20F7E791
:100DE00038B504460020FFF79FFF2268636811684A
:100DF000994213D9481E106011F8013CE568218A18
:100E000001FB0355A36811791B1ADBB2994200D28A
:100E100013710020FFF78AFF284638BD0025F8E748
:100E200038B5054600200C46FFF77EFF2A68136898
:100E3000591C1160E968641A298AB4FBF1F41C702A
:100E4000BDE838400020FFF771BF826810B5044646
:100E50002AB143690168006998470023A36010BD67
:100E60000EB403B5039921B104AB01AA019300F0BC
:100E70006FF802B05DF804EB03B07047826830B4DD
:100E80000468551C8560A154D0E901329A4202D30E
:100E900030BCFFF7DABF30BC704700002DE9F84FD7
:100EA0009846DDE90A43154682460F460A464FF04A
:100EB0000109AA420FD2C14538BFC14613F0010B48
:100EC00001D16CB900240126B8F1010F1BD908F13A
:100ED000FF386E43F8E709F10109B2FBF5F2E8E7E4
:100EE0009B070ED5B8F1000F0CBF30262026A14578
:100EF000E9D2013C31465046FFF7C0FF002CF6D145
:100F0000E0E72026F3E7B7FBF6F39D42E1D9DFF8EF
:100F10003C80B7FBF6F3504618F8031006FB137736
:100F2000FFF7ACFF3346AB42B6FBF5F6F1D2BBF1AF
:100F3000000F02D00CB1A14501D3BDE8F88F2021EC
:100F40005046013CFFF79AFFF4E700BFE53400008C
:100F50002DE9F74F054617468846002900F03E81E7
:100F600018F8011B49B92B7B002B00F0378128466C
:100F700003B0BDE8F04FFFF768BF252940F0B78008
:100F8000002698F800302D2B424608F1010823D0A6
:100F9000302B24D02B2B25D000242A2B02F1010149
:100FA00023D13B681A1D1B683A601C440A4613781B
:100FB0002E2B26D101324FF0000A104610F8011BEB
:100FC000A1F1300CBCF1090F1DD80A2303FB0A1351
:100FD000A3F1300A0246F0E746F00106D1E746F0F9
:100FE0000206CEE746F00406CBE711F8013CA3F178
:100FF00030000928DBD80A2202FB0434303C0A46C0
:10100000CBE74FF0000A12F8011B01F0FB00682843
:101010009046F8D0782909D86F290CD8632962D076
:1010200022D8252963D0582900F0888098F800300C
:10103000002B95D197E770390829F7D801A353F809
:1010400021F000BFB71100002D1000002D1000008E
:101050004D1100002D1000002B1100002D1000007C
:101060002D1000003D110000642901D06929DDD157
:101070003A68D2F80090111D89EAE9723960A2EB52
:10108000E9724FF0010B092A35DCD34538BFD3464E
:101090002CB1B9F1000F01DB720700D5013CB30799
:1010A00002D5BAF1000F03D0F00701D44CBB0024E5
:1010B000B9F1000F2DDAC9F100092D212846FFF7FB
:1010C000DDFE06F00302022A04D1BAF1000F01D1BD
:1010D0001CBB0024CDE9004653460A224946284657
:1010E000FFF7DCFEA2E73B681A1D19783A60284634
:1010F000FFF7C4FE9AE70A230BF1010BB2FBF3F2F0
:10110000C1E7A345D4D220212846013CFFF7B6FE13
:10111000CCE77107D5D52B21D0E7A345DAD2302112
:101120002846013CFFF7AAFED2E73968CDE9004620
:101130000A1D3A6053460A220968D0E739680A1D39
:101140003A60CDE9004653461022F5E73B681A1D88
:101150003A6016F00106D3F8009024D1B9F1000FDF
:1011600003D0484602F0B1F80646B4421DD809F152
:10117000FF3919F8011F00293FF458AF2846FFF73F
:101180007DFEF6E728460136FFF778FE19F80610CF
:101190000029F7D1A642BFF449AF20212846013CDF
:1011A000FFF76CFEF6E70026F0E720212846013C19
:1011B000FFF764FED9E73B681A1D3A6030212846E4
:1011C0001C68FFF75BFE78212846FFF757FE0022D8
:1011D0000823CDE900322146102280E703B0BDE8A4
:1011E000F08F00BF2DE9F84FB0F806A04579D2F88E
:1011F00000B09DF828900AFB05F5043D88460BEBEE
:101200000301A94203F1040488BFA5EB030BB4FB5F
:10121000FAF607460AFB1644C2F800B04EB9AAEB2C
:1012200004055D4528BF5D46BBF1000F04D1BDE854
:10123000F88F3F68013EF1E7043408EB06003C44B8
:101240002A46B9F1000F0DD02146ABEB050B01F09A
:10125000BEFFDA452E443F6855464FF0000428BFD4
:101260005D46E1E701462046EFE7FFF7A2BDF8B58E
:1012700046790146721E0546002393422D6803D32A
:101280000024A64202D8F8BD0133F6E70F682846CD
:10129000FFF7C6FD01343946F3E72DE9F843068A26
:1012A000CD1C0746FFF79CFD043E35440446B5FBC4
:1012B000F6F5F0B14FF48073EDB28380C680013D46
:1012C000076081464FF00008A84512D23846FFF764
:1012D00087FD064648B163790133637108F101085F
:1012E000C9F8000007608146EEE72046FFF7BFFF20
:1012F00034462046BDE8F88301210430FFF73BBDAA
:1013000010B5012104460430FFF741FDC0B220B9F9
:101310002046BDE81040FFF7AABF10BD1FB50392DD
:101320000022009203AAFFF75DFF05B05DF804FB01
:101330001FB503920122009203AAFFF753FF05B0E5
:101340005DF804FB836800225A60C3E904229A60B6
:10135000DA601A6070470000024B034A1B6810688D
:10136000184700BF1806002010060020F0B40646FB
:101370000846F469059FA588A84211461A46BDF89B
:10138000103010D264888C420DD92D1AAA42A4EBD9
:101390000104C8BFAAB2A342C8BFA3B2F4680497AD
:1013A000A446F0BC6047F0BC704730B40446084621
:1013B00011461A46E3699D88854205D95B888B42B0
:1013C00002D9A36830BC184730BC704710B5036819
:1013D0000446984710B9E36901221A7010BD07B599
:1013E000C269938801915288009200221146FFF74A
:1013F000BDFF03B05DF804FB2DE9F04F2DED028B2E
:101400008BB008EE102A9DF85C20169C0792C269EA
:101410004E8852880F462178521A964200F39780E0
:10142000013B3D880193019A12F8013F0192FBB103
:101430000A2B94F800C021D1BCFBF3F363441E4493
:101440003D88B6B2019B1B78202B17BF62782378AA
:101450009B1ADBB21CBF626812F82330C269918804
:1014600008BF5B08CB1A9D42DDDD079B002B60D1D6
:1014700000200BB0BDEC028BBDE8F08F6178626894
:10148000591AC9B2029189000391029912F82110E8
:101490000731CA100492202B4FEAD10205920CD0DA
:1014A0004FF0000AD34623781FFA8BF2934238D9C3
:1014B00032444FF0000992B229E005EB5C05ADB271
:1014C000C0E705EBC3039BB206934FF000080399F6
:1014D00063680B445988A36853444B445B5CC8F170
:1014E00007010B41DB070BD5069B099203EB0801B3
:1014F00089B218EE103A0890FFF757FFDDE90802AD
:1015000008F10108B8F1080FE1D109F101090599C5
:101510001FFA89F39942D4D8049B0BF1010B9A442A
:10152000C1E7029A636813F82230E27815441D443B
:10153000C5E721783D880A23B1FBF3F30B441E4431
:101540005388B6B25B1A9E427FF76DAF90E70720D3
:101550008FE7C36958887047C3699888704700004F
:10156000014B1B68184700BF1C06002038B50B4B09
:1015700098420C4601D0002038BD0020FFF7D4FB74
:10158000074B1D7915B901221C601A710020FFF765
:10159000CDFB002DEFD01120EEE700BF0020004072
:1015A0001C060020034B984201BF034B00221A6027
:1015B0001A717047002000401C06002000F1804096
:1015C00000F5E040002382B0036003680193019BB3
:1015D00002B0704730B50A4B044693F823500820F8
:1015E00001220023144203D0154207D00133DBB29D
:1015F00001384FEA4202F5D10B7030BD0720FCE7FD
:1016000024060020054B93F82200431E012B03D92A
:10161000043818BF012070470020704724060020BE
:101620002DE9F04F93B09A460DF1080C0AAF1C9DBE
:101630003B4B3E46E046002403EB041E0134DEF83B
:10164000189548F8049B082CDEF81CE546F804EBD6
:10165000F2D1D3F8F065D3F8404601944FF0010E73
:101660000024D3F84496D3F84886C3F8FC4FC3F857
:10167000FCEF2B4B5CF804BB03EB041E0134CEF8EB
:1016800018B557F804BBCEF81CB5082CF2D1019C54
:10169000C3F84046F6B2234CC3F84496C3F84886D4
:1016A000C3F8F0650026C4E90166E684256084F885
:1016B00024002682C3F8F015C3F8F42565B323226D
:1016C000C3F80023174D164F002207EB021C20FA27
:1016D00002F3DCF81845110113F0010301F1804118
:1016E00014BFD6469E4601F5E04124F0807402F115
:1016F00001021ABFAE7CAB7E1E4644EA0E64082A85
:10170000CCF8184505F10105C1F81435C1F810658C
:10171000DBD113B0BDE8F08FC3F80053D2E700BFB0
:101720000070004024060020F0B5154F85B0044637
:101730000D4601260CB905B0F0BD94FAA4F2B2FA38
:1017400082F206FA02F3012D24EA03044FEAC203EF
:101750000CBF03F58C7003F58E7000F1804303F528
:10176000E0431B68002BE5D0FFF728FF3B688DF8AE
:1017700004608DF808208DF8095001A89847D9E732
:101780002406002008B5114B93F822100246D1B967
:10179000012083F822004FF48070FFF70FFF4FF411
:1017A0008A70FFF70BFF4FF48270FFF707FF084BBB
:1017B000C3F80013074B802018605201D2B283F89F
:1017C0000723084608BD0820FCE700BF24060020C8
:1017D0000070004000E100E02DE9F0470646FFF709
:1017E00011FF0F460446002867D1DFF8D480014678
:1017F00088F82300102208F1120001F011FDDFF833
:10180000C4E0204621464FF00C0C4FF00109C3B252
:10181000BB4204D30CB188F8231000200DE00CFB70
:1018200003FA06EB0A020130D57A21FA05F3DB0749
:1018300005D50CB188F823100720BDE8F087537850
:1018400094781B01240204F4E06403F03003234382
:1018500016F80A4004F003042343D478240304F464
:10186000805423431479240404F4E024234354795A
:10187000240504F4801423439479240604F080742E
:1018800023430EEB0514C4F818352B0103F18043F4
:1018900003F5E043D47992F808A0C3F814A5C3F87F
:1018A000104508EB0503547A9C7409FA05F5927A01
:1018B0009A762943C9B20124A9E71120BDE700BFE8
:1018C00024060020007000402DE9FF4105460F4628
:1018D00016469846FFF796FEE0B90DF10F0128462F
:1018E000FFF778FE044688B9331E18BF012332463D
:1018F000CDF8008039462846FFF792FE064B9DF84A
:101900000F2083F82520022283F82220204604B0ED
:10191000BDE8F0811124F9E7240600201A4B9A68EB
:1019200010B552BB00F06042B2F1005F27D193F8CE
:101930002540B1FBF4F204FB121212BB0AB2002ADA
:101940001FDD93F82220052A05D8032A0AD8022A87
:101950000DD0082010BD062AFBD10C4AC2F82C0677
:10196000C2F830165A6822B1D981986003E08C42DF
:1019700007D1998158600020ECE78520EAE7102024
:10198000E8E70920E6E700BF2406002000700040D9
:101990004A4A53682DE9F041002B00F08C8092F800
:1019A0002210022904D004292BD00820BDE8F081A0
:1019B000434994890120C1F80005C1F82C36136809
:1019C000C1F830462BB1032382F822300860002092
:1019D000ECE70860D1F80031002BFBD04FF48070A9
:1019E000FFF7ECFD364A01234B60D2F80431002B9F
:1019F000FBD04FF48270FFF7E1FD0020C2F8000534
:101A0000D4E72F49146895890120C1F800053CB13D
:101A1000052482F82240C1F82C36C1F83056D5E7AB
:101A2000148A92F8257003EB4403C1F82C36C1F8F0
:101A300030760860D1F80031002BFBD04FF4807075
:101A4000FFF7BCFD92F82900012350B3D1F8F4153B
:101A5000DFF86C80C9B203FA01F100268E4213D17F
:101A60001749D1F80431002BFBD03C444FF482706D
:101A7000A4B2FFF7A3FDAC4215D214821120104B83
:101A80000022C3F8002591E74FF48470FFF796FD1C
:101A90000123C8F80430D8F80831002BFBD00136F8
:101AA000DCE74B60DCE7936853600020D389108249
:101AB00093819060E3E7042078E700BF24060020CC
:101AC0000070004010B50146FFF79CFDE8B9104CCE
:101AD000104A2160072384F822300123C2F8003520
:101AE000D36019B11023C2F8043310BDD2F81031FD
:101AF000002BFBD04FF48870FFF760FD002001231E
:101B0000C2F8000584F82230EFE71120EDE700BFAE
:101B100024060020007000407FB54B4D4B4CD5F89B
:101B200000316BB34FF48070FFF748FD94F822301A
:101B3000052B06D0062B1BD0032B21D101236B6074
:101B40001EE004238DF8043001A823689847D5F8D7
:101B5000F835A268DB0444BF01236B60062384F8D8
:101B600022302AB1384BE189C3F82C26C3F830164D
:101B7000A3682BB903238DF8043001A82368984784
:101B8000314DD5F8143143B14FF48A70FFF716FD8B
:101B9000D5F83436A3810023A360D5F80431A3B16E
:101BA0004FF48270FFF70AFD636802930026A38951
:101BB000ADF80C308DF80460236801A8984794F8BC
:101BC0002230032B21D0062B25D094F826000021AB
:101BD000FFF7AAFD94F827000121FFF7A5FD1A4A97
:101BE000D2F810317BB14FF48870FFF7E7FC002387
:101BF000C2F80035012384F8223002238DF8043026
:101C000001A82368984704B070BD0223C5F8006599
:101C100084F82230D9E7A368E2896360A281A660D4
:101C200033B194F82830002BCFD001232B60CCE7C0
:101C3000C5F80035042384F8223005238DF80430DC
:101C400001A823689847C0E70070004024060020E0
:101C500000F18040002382B0036003680193019B80
:101C600002B070474FF0804110B5D1F8003163B138
:101C70004FF48070FFF7ECFF0D4B58790122C1F84B
:101C8000082310B95A711B6898474FF08042D2F868
:101C9000043163B14FF48270FFF7DAFF0223C2F818
:101CA0000833034BBDE810401B680120184710BDE6
:101CB000500600200023435082B043580193019BFB
:101CC00002B070472DE9F041224E234FDFF88C809F
:101CD00000244FF48035D7F80433A6F580412B4219
:101CE00089B20CD0336853B1C7F848533846C7F8A7
:101CF0000853FFF7DFFFD8F80030E0B2984701340F
:101D0000042C4FEA450506F10406E4D11248D0F848
:101D10000433DA070AD5D0F800313BB14FF48071B3
:101D2000FFF7C8FF0D4B20461B6898470A48D0F8BC
:101D300004339B070CD5D0F804314BB14FF48271BA
:101D4000FFF7B8FF054BBDE8F0411B6805201847B9
:101D5000BDE8F081404102400040024058060020AA
:101D600000F1804000F5C040002382B003600368AA
:101D70000193019B02B0704703681F2B83BF03F0E0
:101D80001F03036001484FF0A0407047000300505C
:101D900007B5019001A8FFF7EFFF019B00EB83005F
:101DA000D0F8003723F44033C0F80037D0F80037BC
:101DB00043EA0141C0F8001703B05DF804FB0000DE
:101DC000054B4FF0FF32072843F8202084BFC0188E
:101DD00080F84C20704700BF5C06002038B51E49D3
:101DE00091F85B30ABBB4FF6FF70FF245A09012A14
:101DF0000CBF02464FF0FF3203F01F05EA40D20746
:101E000048BFCA1803F1010348BF82F82440302BB1
:101E1000ECD10024E0B20134FFF7D2FF092CF9D154
:101E20000E4B0022C1F855209A800D4BC02083F83C
:101E30000603402018604FF4BE70FFF791FF094B76
:101E40004FF00040C3F80403012381F85B301046D3
:101E500038BD0820FCE700BF5C060020B10600206A
:101E600000E100E000600040F7B53D4F3B1804463C
:101E700093F92430002B71DA8B78C3F34003002BE5
:101E80000BBF0825002509200820854202D1042027
:101E900003B0F0BD57F82560013647D138196EB24E
:101EA00047F8252080F8246013B97B1983F84C404B
:101EB0008B785A071AD4D8073AD501A80194FFF7AE
:101EC0005BFF019B00EB8300D0F8003723F0020397
:101ED000C0F800372348E20804F0070C012303FA96
:101EE0000CF310F802C043EA0C03835488780B7893
:101EF00010F0020028D0AD0005F1804505F5C04581
:101F00002402D5F8102522F44F3222F44072C5F88D
:101F100010251B04D5F8102504F47C5403F4403339
:101F20001C431443C5F810450020B1E70135ACE768
:101F300001A84A780194FFF71FFF019B03F5E073A6
:101F4000920040F82320C5E7083E47FA86F797F845
:101F5000544044EA831387F8543099E7082097E700
:101F60005C060020B106002073B5244D2E180446EF
:101F700096F92420072A1DDD083A45FA82F595F8DE
:101F800054309B09032B10D1019001A8FFF7F4FEF8
:101F9000019BD0F81015D94001F001010231204613
:101FA00002B0BDE87040FFF7F3BE012B0CBF022169
:101FB0000321F4E7D3B2072B1DD8930003F180432C
:101FC00003F5C043D3F8100540F00100C3F8100535
:101FD00002F1400040B2800080B2FFF7C1FE51B173
:101FE00096F9243055F823302BB1012303FA02F27D
:101FF000034BC3F8042302B070BD00BF5C06002091
:10200000006000402DE9FF410024CDE90244534D1A
:102010004FF48072012102F1804303F5C04390B276
:102020001B68012B06D1D5F804330B4202D0FFF711
:1020300097FE0C430432B2F5907F4FEA4101EAD19A
:10204000464BD3F87C31012B11D14FF4BE70FFF712
:1020500087FE4FF0A04344F00044D3F820250292BD
:10206000C3F82025D3F820280392C3F82028E3B230
:10207000D3B13B4F00250126344210D0AB0003F111
:10208000804303F5C043D3F81005D3F8101557F873
:10209000253023B1C1F30141C0F305209847013534
:1020A000082D4FEA4606E7D1002C4EDA2C4F2D4E74
:1020B00097F954305A1C3AD0C3F3C20104A8014422
:1020C000DAB211F8081C03F03F04012503F00703FE
:1020D00005FA03F319422AD001A80194FFF74CFE38
:1020E000019B03F5E07350F82330C3F30148B8F1C6
:1020F000020F0CBF032102212046FFF749FE01A871
:102100000194FFF739FE019B9D403B19C0F8205513
:1021100093F9243057F823304BB19109032904D0A7
:10212000B8F1020F14D1012901D1204698474FF090
:10213000A043D3F820250292C3F82025D6F82035F5
:102140000393C6F820351343B2D104B0BDE8F08143
:10215000B8F1030FEBD10229E6E700BF00600040B1
:102160005C060020000300507FB503788DF8043032
:102170004368029383688DF80C30C3680493036945
:10218000064A8DF81430064B01A853F8213052F856
:102190002110984707B05DF804FB00BFB806002087
:1021A000C8060020F0B50546174615F804CB124ABC
:1021B00042F82C70114A42F82C30114B0C460FCBD0
:1021C00085B06E4686E80F002368009323798DF86A
:1021D000053063798DF80630A3680293002FA38938
:1021E000084AADF80C3008BF3A46634631462846E7
:1021F00000F054F805B0F0BDC8060020B806002075
:1022000044350000692100001F2886BF054A00F000
:102210001F004FF0A042012303FA00F0C2F80C05A2
:10222000704700BF000300501F2886BF054A00F01A
:102230001F004FF0A042012303FA00F0C2F8080586
:10224000704700BF00030050114B07B5D3F81821A9
:10225000DAB110490022C3F81821C87FD3F8183129
:102260000193FF28019B03D08B7F5BB1FFF7CCFF6D
:1022700000234B770B72D1E90031074803B05DF8BA
:1022800004EB1847FFF7D0FFF2E703B05DF804FB5B
:1022900000300040D8060020E00600202DE9F74F6E
:1022A00006796D4D01934FF0240909FB06F905EB02
:1022B000090A93469AF81C2080460C46002A40F0F2
:1022C000C780076865493846FFF750F9014600287E
:1022D00040F0C08045F809B0019BCAF80430237B68
:1022E0002078012B00F29D80FFF78EFF23781F2BB3
:1022F00086BF03F01F035A4A4FF0A04203F5E07374
:10230000012042F8230094F80190B9F1FF0F00F08A
:102310008B804846FFF778FFB9F11F0F8BBF09F09C
:102320001F034B464E4A4FF0A04203F5E0730320D3
:1023300042F82300A378FF2B79D01F2B8BBF03F02B
:102340001F021A4646484FF0A04002F5E0724FF0D7
:10235000040C40F822C09A46242202FB065282F85E
:102360002030E078D077FF2816D02379002B61D079
:10237000FFF74AFFE3781F2B86BF03F01F03384A9D
:102380004FF0A04203F5E073032042F8230024231A
:1023900003FB065322799A772378C7F80835A36898
:1023A000C7F80C95C7F810A5C7F82435637B227BC6
:1023B000003B18BF0123022A3FD0032A40D0012A44
:1023C00001D143F00203C7F85435A379C7F8C035EB
:1023D0000723C7F8003524237343EB58B3B1D8F86B
:1023E0000030627943F3073052010028C3F307330A
:1023F000D2B228DB1B4C271887F8002301224009A2
:1024000003F01F0302FA03F344F82030242303FBF4
:10241000065500236B7701232B77084603B0BDE8F0
:10242000F08FFFF701FF61E74FF0FF3982E74FF0D0
:10243000FF3A91E7FFF7F8FE9CE743F00403C2E799
:1024400043F00603BFE7084803F00F03C254DDE77B
:102450000821E2E71121E0E7D80600204922000028
:102460000003005000E100E014ED00E070B50579D4
:10247000254C24236B43E35893B103681A0B43F3B1
:102480000733002B0CDB02F01F015B0901228A409D
:1024900020331E4941F82320BFF34F8FBFF36F8FC6
:1024A00024236B43E218E35800687BB1184BC0F853
:1024B0000833537F53B101234361D0F80431002B1B
:1024C000FBD0242303FB054300225A77242303FB7C
:1024D000054393F82030FF2B0BD01F2B86BF03F052
:1024E0001F030C4A4FF0A04203F5E073022142F8AB
:1024F00023100026C0F80065FFF754F8242303FBDF
:102500000544267770BD00BFD806002000E100E03A
:1025100052010800000300502DE9F3410779424EB3
:1025200024237B431446F2180D46517F8046002930
:1025300078D1F35823B114F0140F04BF012353775B
:1025400095E80F004FF0240C0CFB076C0CF10C0EFF
:102550008EE80F009CF81F00FF2804D09CF81E3066
:10256000C3B1FFF761FE296821B101F06043B3F107
:10257000005F06D1AA6882B102F06043B3F1005F48
:102580000BD0242303FB076600237377102002B0CF
:10259000BDE8F081FFF738FEE5E7D8F8003068685D
:1025A000C3F84415C3F84805E968C3F83425002288
:1025B000C3F83815C3F81821D3F818210192019AED
:1025C00014F0010218BF0122C3F8502514F00202D2
:1025D00018BF0122C3F8402522075CBF01221A61FF
:1025E00024227A43B25892B9D3F81821002AFBD09A
:1025F000242303FB0766F07FFF2803D0B47F1CB1C0
:10260000FFF702FE0020C2E7FFF70EFEFAE714F024
:1026100004004FF0400202D0C3F80823F2E7C3F8E9
:102620000423B4E71120B2E7D80600204FF080431E
:1026300037B50122C3F878254FF400410020FEF79A
:102640001FF808B1FEF71AFBFDF75EFF0F4C104DA7
:1026500000F072F800F0AAF800F0BAF80D4BE41A96
:10266000E408240444F003040DF1060101A800F07D
:1026700023F8BDF90630BDF9042029462046FEF7AF
:1026800099F9FEF74DF80028FBD1EDE76C33000017
:10269000593500002C330000064B1A6801321A60CD
:1026A0001A684FF47A7192FBF1F001FB10221A6064
:1026B000704700BFFC06002030B5022285B00546F9
:1026C0000C46002311460320FFF7FEF808B1FEF781
:1026D000D5FA17480221FFF721F908B1FEF7CEFA23
:1026E000FFF756F90028FBD1124BD3F84026019290
:1026F000D3F844260292D3F848260392C3F8FC0F7D
:10270000D3F8FC2F0122C3F8FC2F019AC3F840260E
:10271000029AC3F84426039AC3F84826044BB3F937
:1027200000202A80B3F90230238005B030BD00BFFD
:10273000000700200070004007B5FFF74FFB184B63
:1027400001901A88ADF800209B78164A8DF8023067
:1027500069460620FFF788FB012101900620FFF75C
:1027600003FC0620FFF70EF80190019808B1FEF770
:1027700085FA0D4801230221C3708170C3738173F0
:10278000FFF72AF80190019808B1FEF777FA0020C8
:10279000FFF798F90028FAD103B05DF804FB00BFF9
:1027A00071350000992600000800002008B5044893
:1027B000FEF70CFE18B1BDE80840FEF75FBA08BD91
:1027C000B835000001480021FEF709BEB835000009
:1027D000F7B51F4D1F4CFFF7F5FF2846FEF7BCFE6F
:1027E00006462846FEF7B5FEB60800272680800874
:1027F000194E60802146194B019700964EF6E07203
:102800002846FEF7F9FD6288144B14326280214697
:10281000CDE900671F222846FEF7EEFD62880F4BC8
:10282000143262802146CDE900674FF47842284691
:10283000FEF7E2FD6288094B14326280CDE9006741
:102840004FF4FF5221462846FEF7D6FD03B0F0BDF7
:10285000B835000004070020D03D000074350000AA
:102860000369C26893429CBF80681B18013B981A99
:1028700070472DE9F843D0E902940546A9EB040816
:102880004068904520440F46144404D900F09FFC52
:10289000EC60BDE8F8834246A4EB090400F097FC25
:1028A0006868224607EB0801F0E72DE9F843C568A0
:1028B0000646894617464FF000083469B3687068C9
:1028C000A54228BFE418013C621B5C1BBC4228BF28
:1028D0003C46944228BF144649462844224600F00C
:1028E00076FCB3682544AB4208BF00253F1BA044DB
:1028F000A144F560E1D14046BDE8F88310B5114C24
:10290000114AA2610223C4E90433104BE361A264BB
:102910004FF400730E4A0F492362E2640023102231
:10292000E01DA3626362E362A3656365E3652265FC
:1029300000F0A9FC0849204600F0A5FC2023A37163
:1029400010BD00BF0807002081350000900700205F
:10295000800700208A3500008E35000070B5164BC8
:10296000182400FB04451D4404FB00331646DC6AB2
:10297000012C0ED0022C18D0E4B92846FFF770FFC6
:10298000864204D832462846FFF773FF3446204675
:1029900070BD2846FFF764FF8642344628BF0446D0
:1029A00022462846FFF765FFF1E72846BDE870405C
:1029B000FFF77BBF0024EAE708070020FFF79EBF70
:1029C0004FF08053D3F83001A0F10803584258412A
:1029D000704700004FF08053D3F83021082A06D109
:1029E000D3F83431032B02D8024AD05C7047002060
:1029F000704700BF9535000008B5FFF7E1FF40B113
:102A00004FF080430022C3F80C21C3F81021C3F813
:102A10003825FFF7D5FF002846D04FF08052614B94
:102A2000D2F80414C3F82015D2F80814C3F82415FA
:102A3000D2F80C14C3F82815D2F81014C3F82C15CA
:102A4000D2F81414C3F83015D2F81814C3F834159A
:102A5000D2F81C14C3F84015D2F82014C3F844155A
:102A6000D2F82414C3F84815D2F82814C3F84C152A
:102A7000D2F82C14C3F85015D2F83014C3F85415FA
:102A8000D2F83414C3F86015D2F83814C3F86415BA
:102A9000D2F83C14C3F86815D2F84014C3F86C158A
:102AA000D2F84424C3F87025FFF794FF18B13E4BC9
:102AB0003E4AC3F88C26FFF78DFF18B13C4BFB2232
:102AC000C3F81825FFF786FF70B14FF080414FF033
:102AD0008053D1F8E42ED3F8583222F00F0203F0DD
:102AE0000F031343C1F8E43EFFF774FF20B1314BED
:102AF0004FF40072C3F84026FFF762FF48B14FF071
:102B00008043D3F80024D20744BF6FF00102C3F81A
:102B10000024294AD2F8883043F47003C2F8883080
:102B2000BFF34F8FBFF36F8F4FF01023D3F8002206
:102B3000002A03DBD3F80432002B2EDA1F4B0122CC
:102B4000C3F80425D3F80024002AFBD04FF010224C
:102B50001221C2F80012D3F80024002AFBD04FF053
:102B600010231222C3F80422144BD3F80024002AA5
:102B7000FBD00022C3F80425D3F80024002AFBD0A0
:102B8000BFF34F8F0C490E4BCA6802F4E062134347
:102B9000CB60BFF34F8F00BFFDE70A4B0A4A1A60B4
:102BA00008BD00BF00C00040005000404881030045
:102BB00000F000400090024000ED00E000E0014025
:102BC0000400FA05200000200090D00370470000A8
:102BD0000148FFF74BBC00BFDC350000024B4FF44F
:102BE0008062C3F808257047000300501FB500221B
:102BF000CDE9000107486946CDE90222FFF78CFCC8
:102C000020B105B05DF804EBFEF738B805B05DF80B
:102C100004FB00BFDC35000007B501218DF807007B
:102C20000DF10700FFF7DAFFFFF7E0FF03B05DF8F3
:102C300004FB000038B5054D044645F001054FF48E
:102C40007A40A847013CFAD138BD00BFB03500003A
:102C5000024B4FF48062C3F80C257047000300500C
:102C600007B501218DF807000DF10700FFF7F0FF10
:102C7000FFF7BCFF03B05DF804FB002814BF212060
:102C80002020FFF7EDBF000010B504463620FFF707
:102C9000E7FF032C22D8DFE804F0020C131A104BD4
:102CA0001B78022B0CBFC020C820BDE81040FFF7E6
:102CB000B3BF0B4B1B78022B0CBFA020A820F4E75E
:102CC000074B1B78022B0CBF00200820EDE7044BBC
:102CD0001B78022B0CBF60206820E6E710BD00BF08
:102CE00090090020F8B507462A200D4616461C46D6
:102CF000FFF7B6FF0020FFF78FFF3846FFF78CFF86
:102D00000020FFF789FF3046FFF786FF2B20FFF7F3
:102D1000A7FF0020FFF780FF2846FFF77DFF002078
:102D2000FFF77AFF2046FFF777FFBDE8F8402C2039
:102D3000FFF796BF73B515461C46013A013B069E48
:102D400053FA81F352FA80F2DBB2D2B2C9B2C0B206
:102D5000FFF7C8FF06F4FC636C4343EAC62343EA6B
:102D6000D623E51D04F007041A0A013C8DF804205F
:102D70008DF80530ED10FFF731FF062C05D8DFE8A0
:102D800004F0201C1814100C0800022101A8FFF701
:102D90002DFF022101A8FFF729FF022101A8FFF75B
:102DA00025FF022101A8FFF721FF022101A8FFF75B
:102DB0001DFF022101A8FFF719FF022101A8FFF75B
:102DC00015FF022101A8FFF711FF013DDDD1FFF73B
:102DD0003FFF02B070BD13B5CBB21446C2B2194664
:102DE0001046FFF77FFF04F4FC6343EAC42343EA81
:102DF000D422130A022101A88DF804308DF8052091
:102E0000FFF7ECFEFFF7F2FEFFF722FF02B010BD66
:102E10007FB5BB4BBB4D002603222E70C3F828277D
:102E2000B94B0FCB6C4684E80F00B84B009321469A
:102E3000B74833463246FFF7B5F90446002840F05C
:102E40001C810120FFF70CFF9620FFF7F3FE1120F5
:102E5000FFF706FF4FF4FA70FFF7ECFEB120FFF723
:102E6000FFFE0120FFF7D8FE2C20FFF7D5FE2D2016
:102E7000FFF7D2FEB220FFF7F3FE0120FFF7CCFEF2
:102E80002C20FFF7C9FE2D20FFF7C6FEB320FFF769
:102E9000E7FE0120FFF7C0FE2C20FFF7BDFE2D202E
:102EA000FFF7BAFE0120FFF7B7FE2C20FFF7B4FEB4
:102EB0002D20FFF7B1FEB420FFF7D2FE0720FFF769
:102EC000ABFEC020FFF7CCFEA220FFF7A5FE02203C
:102ED000FFF7A2FE8420FFF79FFEC120FFF7C0FE90
:102EE000C520FFF799FEC220FFF7BAFE0A20FFF7C0
:102EF00093FE2046FFF790FEC220FFF7B1FE8A2026
:102F0000FFF78AFE2A20FFF787FEC420FFF7A8FEFE
:102F10008A20FFF781FEEE20FFF77EFE0E20FFF7EE
:102F20007BFE2020FFF79CFE3620FFF799FEC8208D
:102F3000FFF772FE3A20FFF793FE0520FFF76CFEC5
:102F40002B78002B40F09C802A20FFF789FE20463A
:102F5000FFF762FE0220FFF75FFE2046FFF75CFEF0
:102F60008120FFF759FE2B20FFF77AFE2046FFF75E
:102F700053FE0120FFF750FE2046FFF74DFEA02034
:102F8000FFF74AFEE020FFF76BFE0220FFF744FE4A
:102F90001C20FFF741FE0720FFF73EFE1220FFF73F
:102FA0003BFE3720FFF738FE3220FFF735FE2920A1
:102FB000FFF732FE2D20FFF72FFE2920FFF72CFE12
:102FC0002520FFF729FE2B20FFF726FE3920FFF7EB
:102FD00023FE0020FFF720FE0120FFF71DFE032047
:102FE000FFF71AFE1020FFF717FEE120FFF738FE6B
:102FF0000320FFF711FE1D20FFF70EFE0720FFF74D
:103000000BFE0620FFF708FE2E20FFF705FE2C2002
:10301000FFF702FE2920FFF7FFFD2D20FFF7FCFD43
:103020002E20FFF7F9FD2E20FFF7F6FD3720FFF7E2
:10303000F3FD3F20FFF7F0FD0020FFF7EDFD00203E
:10304000FFF7EAFD0220FFF7E7FD1020FFF7E4FDA0
:103050001320FFF705FE0A20FFF7ECFD2920FFF7FC
:10306000FFFD6420FFF7E6FD2B78022B05D136200B
:10307000FFF7F6FDC020FFF7CFFD204604B070BD7E
:10308000032B1CD12A20FFF7EBFD2046FFF7C4FDE0
:103090002046FFF7C1FD2046FFF7BEFD7F20FFF76A
:1030A000BBFD2B20FFF7DCFD2046FFF7B5FD2046DA
:1030B000FFF7B2FD2046FFF7AFFD7F2060E7012B51
:1030C0007FF460AF2A20FFF7CBFD2046FFF7A4FD79
:1030D0002046FFF7A1FD2046FFF79EFD7F20FFF76A
:1030E0009BFD2B20FFF7BCFD2046FFF795FD2046FA
:1030F000FFF792FD2046FFF78FFD9F2040E700BFBE
:1031000000030050900900209C3500002F2D2E2C2C
:10311000D83500007F2805D8034B185C034B5B5C57
:103120001840704700207047E83D0000683E0000EE
:10313000A0F16103192B98BF20387047A0F141031B
:10314000192B98BF203070477F2805D8034B185C97
:10315000034B5B5C1840704700207047E83D00005F
:10316000683E0000A0F16103192B98BF203870471A
:10317000A0F14103192B98BF203070477F299ABFD7
:10318000017001206FF02E0070475AB10A787F2A33
:103190000AD800B10260002119605960501A18BFA6
:1031A00001207047002070476FF02E00704700002C
:1031B00008B5034B5B689B681B68984708BD00BF58
:1031C0002C00002008B50921FFF7F2FF08BD844656
:1031D00040EA010313F0030F18D18446202A0BD3D1
:1031E0002DE9F007B1E8F807A0E8F807A2F12002FE
:1031F000202AF7D2BDE8F007042A07D351F8043B90
:1032000040F8043BA2F10402042AF7D2002A05D0B8
:1032100011F8013B00F8013B013AF9D160467047D3
:103220008446002A2DD010F0030F04D000F8011BB3
:10323000013A26D0F7E7C9B241EA012141EA01414A
:10324000202A12D3A2F120022DE9F0030B460C46EE
:103250000D460E460F4688468946A0E8FA03203AF6
:10326000FBD2BDE8F00320320BD0042A05D340F88E
:10327000041B043A05D0042AF9D200F8011B013AD4
:10328000FBD160467047024610F0030F16D111F0D3
:10329000030F13D12DE9F0004FF001374FF08033C9
:1032A00051F8044BA4EB070525EA04051D4002D1A3
:1032B00042F8044BF4E7A1F10401F0BC11F8013B22
:1032C00002F8013B002BF9D1704700F1010110F029
:1032D000030F11D010F8012B002A23D010F0030F98
:1032E0000AD010F8012B002A1CD010F0030F03D0D5
:1032F00010F8012B002A15D02DE970004FF0013293
:103300004FF0803350F8044BA4EB020525EA040586
:103310001D4000D1F6E7A0F1040070BC10F8012BAD
:0A332000002AFBD1A0EB010070476A
:10332C002A350000000000003A35000000000000C3
:10333C0015350000000000003035000000000000D2
:10334C00193500000000000054350000000000009A
:10335C001F350000000000002435000000000000B4
:10336C00F533000000000303FE34000000000000F1
:10337C00343500000000000011350000000003038C
:10338C00F5340000000000000835000000000000CB
:10339C00C833000000000000D433000000000020FF
:1033AC00840000204C010020540100208C000020DF
:0433BC0018000000F5
:1033C0000338FDD870470000D50300004104000019
:1033D000D10300007274745F6C6F675F6261636B2E
:1033E000656E64004261636B656E647320666C7524
:1033F000736865640061707000000000740500204F
:103400007F000000F40500201B5B313B33316D0071
:1034100025734C6F67732064726F70706564202829
:1034200025642925730D0A001B5B306D0025730090
:103430003C25733E2025733A200020253032780049
:10344000202020007C002563001B5B313B33306D66
:10345000001B5B313B33326D001B5B313B33336D03
:10346000001B5B313B33346D001B5B313B33356DEF
:10347000001B5B313B33366D001B5B313B33376DDB
:10348000007761726E696E6700696E666F006465D1
:1034900062756700283400004934000008340000D9
:1034A00051340000593400006134000069340000D8
:1034B000713400007934000000000000D2340000B4
:1034C00081340000893400008E340000466174614C
:1034D0006C206572726F720053797374656D20721F
:1034E00065736574003031323334353637383941DD
:1034F00042434445467077725F6D676D740061703A
:10350000705F74696D657200736F72746C69737447
:1035100000676678005052530053414144430055C0
:1035200041525400554152544500434C4F434B00C7
:1035300052544300636C6F636B004750494F5445CE
:1035400000000000FFFFFFFF0006FF00000000403A
:10355000000000005350494D00785F76616C75653E
:103560003A20256420795F76616C75653A20256480
:10357000000200026E524635322066616D696C7938
:10358000005465726D696E616C005254540053456D
:10359000474745520001000000000000FFFFFFFF09
:1035A00006FF0000000000400000000000000000D6
:1035B0000338FDD870470000112E0000D12B000009
:1035C000D72D0000352D0000CD2B0000892C0000E8
:1035D0007B2C000024000020000000000030004090
:1035E00000000000010000000000C080808080809A
:1035F000800000C0000000000000A0A0A0A000000B
:1036000000000000000000000000222222FF24240D
:1036100024FF44440000000010384480C060380C8F
:103620000484C478100000000000E3A2A4E808109D
:1036300026294986000000000000384840402050FC
:1036400089864639000000000000808080800000EC
:1036500000000000000000002020404080808080AA
:10366000808080808040402080C04020202020201A
:1036700020202020202040800000C0E0C00000006A
:10368000000000000000000000000008080808FF1B
:10369000080808080000000000000000000000000A
:1036A000000000808080800000000000000000001A
:1036B000F800000000000000000000000000000012
:1036C000000000C00000000000000302040408081D
:1036D000101020204040800000003844C6828282C2
:1036E00082C644380000000000003070B030303036
:1036F0003030303000000000000078C8840408102A
:103700003060C0FC00000000000070C808083008ED
:103710000484C8780000000000000C0C1414244439
:1037200044FE04040000000000007C8080F88C044B
:1037300004048C7800000000000008102078448603
:103740008286C478000000000000FE06040C081009
:103750001020204000000000000070C888C8708859
:103760008484887800000000000078C4868284C4C5
:1037700078103060000000000000000000C0000071
:10378000000000C0000000000000000000C00000B9
:10379000000000C040408000000000020C3060C00B
:1037A0006018060200000000000000000000FF009A
:1037B00000FF00000000000000000080601806020A
:1037C0000C30C080000000000000708888081830AD
:1037D00020200020000000000000000078489CA489
:1037E000A49C403C00000000000000000C000C0005
:1037F000140012003200230021007F004080C080AE
:1038000000000000000000000000F88C848CF884A8
:10381000828286FC0000000000003E62C080808042
:1038200080C0623E000000000000F8848282838332
:10383000828284F8000000000000F8808080F88018
:10384000808080F8000000000000F8808080F88010
:10385000808080800000000000001E6140808F8119
:103860008141611E00000000000083838383FF8389
:10387000838383830000000000008080808080803C
:103880008080808000000000000020202020202078
:10389000202020C0000000000000868890A0C0A06A
:1038A00090888482000000000000808080808080FA
:1038B000808080F80000000000000000C0C0C0C090
:1038C000A140B34092408C408C4088408040804072
:1038D0000000000000000000000081C1A1B191893A
:1038E0008D87838100000000000000003E0063001F
:1038F000C1808080808080808080C18063003E00A5
:1039000000000000000000000000F8848484F880BB
:103910008080808000000000000000003E00630006
:10392000C1808080808080808480C38063003EC0AE
:1039300000000000000000000000F8848484FC9077
:103940008888848600000000000078C480C0700C65
:1039500004868478000000000000FE101010101093
:10396000101010100000000000008282828282820B
:103970008282463C0000000000000000C0804180C0
:103980004100610022002200160014001C000C00FF
:103990000000000000000000000000008404C60CCD
:1039A000420862182310231013B014A01CE0084032
:1039B00000000000000000000000C362241C181872
:1039C000142662C1000000000000C162261418081D
:1039D00008080808000000000000FE040C08103071
:1039E0002040C0FE00000000E08080808080808059
:1039F00080808080808080E0000080404020201017
:103A00001008080404020300E020202020202020C9
:103A100020202020202020E0000008000C001400BE
:103A20001600220022004100C180000000000000BA
:103A30000000000000000000000000000000000086
:103A400000000000FE0000000000C0600000000058
:103A50000000000000000000000000000070880866
:103A6000F88898E8000000000000808080B8CC84CE
:103A70008484CCB80000000000000000007090803A
:103A800080809070000000000000040404748C84A6
:103A900084848C740000000000000000007088889E
:103AA000FC808870000000000000704040E0404052
:103AB00040404040000000000000000000748C8482
:103AC00084848C74048870000000808080B8C8846E
:103AD00084848484000000000000C0000080808096
:103AE0008080808000000000000060000060606056
:103AF000606060606040C000000080808098B0E03E
:103B0000E0B09888080000000000808080808080FD
:103B100080808060000000000000000000000000C5
:103B20000000FB80CCC088408840884088408840A6
:103B300000000000000000000000000000B8C88481
:103B400084848484000000000000000000708884E9
:103B500084848870000000000000000000B8CC845D
:103B60008484CCB8808080000000000000748C84C5
:103B700084848C74040404000000000000B0C08041
:103B80008080808000000000000000000038484075
:103B9000380CCC78000000000000404040F040406D
:103BA0004040403800000000000000000084848491
:103BB0008484CC74000000000000000000C444486D
:103BC0006828301000000000000000000000000025
:103BD0000000D880498049004D0035003600320091
:103BE00000000000000000000000000000C64C388B
:103BF00010384CC6000000000000000000848484DF
:103C00008484CC74048870000000000000F8183030
:103C10002040C0F8000000006040404040408080EC
:103C200080804040404040600000808080808080F4
:103C30008080808080800000804040404040404044
:103C400060404040404040800000000000000062B2
:103C5000528C000000000000020000000300100071
:103C60000800200006003000080040000800500056
:103C7000010060000300700003008000030090005A
:103C80000800A0000100B0000500C0000200D00044
:103C90000800E0000700F000040000010600100129
:103CA0000600200107003001060040010700500116
:103CB000070060010600700107008001020090010A
:103CC0000200A0010700B0010800C0010700D001F8
:103CD0000500E0010600F0010900000207002002D3
:103CE0000700300208004002050050020500600293
:103CF0000800700208008002010090020300A00288
:103D00000700B0020500C0020A00D0020800F0025D
:103D100009000003060020030A00300307005003D7
:103D20000700600307007003070080030900900389
:103D30000E00B0030800D0030800E0030700F00302
:103D400003000004080010040300200409003004EC
:103D5000070050040300600405007004060080049E
:103D6000040090040600A0040600B0040400C0048F
:103D70000600D0040600E0040200F0040300000581
:103D800005001005030020050A0030050600500557
:103D90000600600506007005060080050400900519
:103DA0000600A0050500B0050600C0050600D00508
:103DB0000900E005070000060600100605002006C1
:103DC00003003006010040060300500607006006AD
:103DD0000F217E02583C0000E8350000430000003F
:103DE000504F534958000000202020202020202040
:103DF000206828282828202020202020202020205B
:103E000020202020202020204810101010101010FA
:103E10001010101010101010848484848484848402
:103E20008484101010101010108181818181810113
:103E30000101010101010101010101010101010172
:103E40000101011010101010108282828282820201
:103E50000202020202020202020202020202020242
:103E600002020210101010200007032004170201A4
:103E70000857104080000000DC3D0000E03E0000DC
:103E8000F43F000053756E004D6F6E005475650071
:103E90005765640054687500467269005361740088
:103EA000000000004A616E00466562004D617200CC
:103EB000417072004D6179004A756E004A756C0060
:103EC00041756700536570004F6374004E6F760054
:103ED0004465630000000000414D00504D000000AB
:103EE000184000001440000014400000144000007E
:103EF0001440000014400000144000001440000072
:103F00001440000014400000FFFFFFFFFFFFFFFF11
:103F1000FFFFFFFFFFFF0000543F0000843E000052
:103F2000903F0000A43E0000D83E0000383F000053
:103F3000E83F0000443F0000256D2F25642F2579C0
:103F400000000000256120256220256520255420E1
:103F50002559000053756E646179004D6F6E646180
:103F6000790054756573646179005765646E657393
:103F7000646179005468757273646179004672698E
:103F800064617900536174757264617900000000A6
:103F90004A616E7561727900466562727561727907
:103FA000004D6172636800417072696C004D617907
:103FB000004A756E65004A756C79004175677573C6
:103FC000740053657074656D626572004F63746F41
:103FD000626572004E6F76656D626572004465635E
:103FE000656D62657200000025483A254D3A2553FB
:103FF0000000000015310000313100003D310000AB
:104000004931000065310000713100007D31000050
:0A4010008B310000000000002E00BC
:10401C0000000000FF000000000000000201000092
:10402C000001020000000000020100000003040176
:10403C000090D0030000A00080000000783E00003B
:10404C00783E0000783E0000783E0000783E00008C
:040000030000037581
:00000001FF
