:1000000000000420750300005D0300005F03000092
:1000100061030000630300006503000000000000AE
:100020000000000000000000000000006703000066
:1000300069030000000000006B0300006D03000076
:10004000211A00006F0300006D1300006F03000011
:100050006F0300006F030000C11D0000D5180000F1
:100060006F0300006F0300006F0300006F030000C8
:100070006F0300006F0300006F0300006F030000B8
:100080006F030000591300006F0300006F030000AE
:100090006F0300006F0300006F0300006F03000098
:1000A0006F0300006F0300006F0300006F03000088
:1000B0006F0300006F03000000000000000000005C
:1000C0006F0300006F0300006F0300006F03000068
:1000D000811A00006F0300006F0300006F0300002F
:1000E0006F0300006F0300006F03000000000000BA
:1000F000000000006F030000000000006F0300001C
:1001000000000000000000000000000000000000EF
:1001100000000000000000000000000000000000DF
:1001200000000000000000000000000000000000CF
:1001300000000000000000000000000000000000BF
:1001400000000000000000000000000000000000AF
:10015000000000000000000000000000000000009F
:10016000000000000000000000000000000000008F
:10017000000000000000000000000000000000007F
:10018000000000000000000000000000000000006F
:10019000000000000000000000000000000000005F
:1001A000000000000000000000000000000000004F
:1001B000000000000000000000000000000000003F
:1001C000000000000000000000000000000000002F
:1001D000000000000000000000000000000000001F
:1001E000000000000000000000000000000000000F
:1001F00000000000000000000000000000000000FF
:10020000354936480A1A02D0072291438D463449AF
:1002100034480A1A06D00722914381F30988022242
:1002200082F3148830483149314A00F044F83148AB
:100230003149324A00F03FF831483249324A00F041
:100240003AF832483249334A00F035F832483349F7
:10025000334A00F030F833483349344A00F02BF881
:1002600033483449344A00F026F8344834490022EF
:1002700000F02CF833483449002200F027F83348C6
:100280003349091A082902DB002202604160314A21
:1002900090471F481F49884205D00268043003B4C4
:1002A000904703BCF7E700208646EC46002000217B
:1002B000294A9047FEE7884207D0521A05D00378B2
:1002C00001300B700131013AF9D17047884202D0F8
:1002D00002700130FAE770470000042000E00320BC
:1002E0000000042000000420A02A000000000020DC
:1002F00038000020D0030000D00300001E260000BC
:10030000A02A00000000002000000020A426000019
:10031000A4260000A4260000A4260000A4260000B5
:10032000A4260000A4260000A42600009E2A0000A7
:10033000D82A0000380000203800002038000020B3
:100340004009002040090020400900204009002009
:10035000402900209D030000251F0000FEE7FEE766
:10036000FEE7FEE7FEE7FEE7FEE7FEE7FEE7FEE765
:1003700000F002B8FFF7FCBF0F484FF007018843B9
:1003800085460E4880470E48016841F470010160BF
:10039000BFF34F8FBFF36F8FFFF732BF09480A4992
:1003A0000A4A884207D0521A05D0037801300B70F0
:1003B0000131013AF9D170470000042035220000D4
:1003C00088ED00E0A42600000000002000000020CE
:1003D0007047000007B5044B0093044A402300F027
:1003E00032F803B05DF804FBF1030000390000208F
:1003F0002DE9F84388461446B2B10F4B0F4E032542
:10040000002743F00109224608EB0701002001F014
:10041000C3FE0744241A48B933782BB14FF47A400D
:10042000C847013D02D13570BDE8F8830123337020
:10043000002CE8D1F8E700BFB0260000380000200B
:10044000704701F0D9BEF0B595B01D461646084676
:100450000C4600F051FF1A9B0D93CDE9086500256D
:100460002B46082205A920460A958DF82C500C959C
:1004700000F05EFF079B0293069B03939DF81430E8
:100480008DF8115003F00302012A1DD1BDF814208C
:10049000059DC3F3C203C2F383168DF81030B2007A
:1004A00008230EA9204600F043FFC5F3952508ABAD
:1004B0000093324602AB0EA9284600F01BFB2046F3
:1004C00000F01EFF15B0F0BD022AF8D1BDF816509D
:1004D000C3F3C203C5F389158DF810300827082D22
:1004E0002E4628BF08263B4632460EA9204600F07D
:1004F0001FFFAD1B08AB02AA31460EA8374400F01F
:100500005DFB002DEBD1DAE708B5FFF79AFF044851
:10051000042100F059FA034B01225A7108BD00BFB3
:100520008026000000000020037813F0040216D09B
:1005300003F00303012B03D0022B09D001207047E5
:100540000A6800880232C0F3831002440A60F5E7AB
:100550000B684288023303EB92130B60EEE7104600
:10056000704700002DE9F04FDFF810A10F4685B06D
:100570000446861C0020154600F0D6FBDAF804205D
:100580003A60DAF8083003F580739B1A0AF21C47C8
:100590000AF583690AF21448B34219D30020002DEA
:1005A00068D004F00F039B0143F0050363F30F00D1
:1005B000DAF80430DAB2033233444AF82200002079
:1005C000CAF8043000F0B2FB012005B0BDE8F08F9E
:1005D0000121384600F0CFFB484600F0E4FB4046DE
:1005E00000F0E1FBDAF808000090C0B203300AEB3B
:1005F00080006946FFF798FF009B30BBDAB20AEB38
:100600008202D16801919A1C0133DBB20AEB8303A9
:100610000092D3F80CB001F00303012B22D0022B7F
:1006200015D08346404600F0C1FB10B1009BCAF8CC
:1006300008305946384600F09EFBDAF80830DAF800
:10064000042003F580739B1AA6E7D8B2CEE7BDF865
:100650000630C3F3891303334FEA1B4B02EB9303BA
:100660000093DFE7BDF80430C3F383134FEA1B4B5D
:100670001344F5E7A40544F0060099E74C01002077
:10068000064B074810B500221A7000F0EEFD044634
:1006900010B9044800F056FE204610BD4C01002061
:1006A00090260000EC26000030B50A4C71B10A4AD1
:1006B0000A49121BD20800239A4201D1002030BD02
:1006C00031F82350854202D00133F5E7034654F850
:1006D0003300F4E720260000802600000000002000
:1006E000094B013903EBC000032909D8DFE801F009
:1006F0000A02040604207047007970474079704769
:10070000002070470220704720260000034BD3E9E9
:100710000130C31A58425841704700BF4C010020B5
:100720002DE9FF41FFF7F2FF0546002840F0E98080
:10073000754CC4F81804BFF34F8FA3680093DBB265
:10074000033304EB83006946FFF7EEFE009B18B10C
:10075000D4F81824002A5AD0DAB2991C013304EBD9
:100760008202DBB204EB8303D268DB68029302F0FF
:100770000303022B0192009154D1BDF80630634867
:10078000C3F38917502F3E4628BF502606F10801B3
:1007900066F38F13C1F30901ADF8063000F07DFD5B
:1007A0000546002800F0988000F0A6FD00230822EE
:1007B00001A9284600F0B2FD0099CB43DBB201331A
:1007C000C9B20331B6EB830F4FEA830204EB810118
:1007D00025D95FFA82F80823A6EB0806284600F020
:1007E0009DFDF6B208F10803494903F0FC033246C7
:1007F000284600F093FD009B033703EB9707009713
:10080000D4F81834002B43D1D4F8106453E0626854
:100810009A4294D8A260284604B0BDE8F08108232B
:100820003246E5E7012B57D1BDF804303748C3F312
:100830008311062928BF062161F38913023101F0D3
:100840000F018900ADF8043000F027FD05460028AF
:1008500042D000F051FD0023082201A9284600F0F3
:100860005DFD0026BDF80420C2F38312B30096425A
:1008700003F10803C4D200994A1CC9B203310092A3
:1008800004EB81010422284600F048FD0136E9E727
:10089000284600F035FDFFF739FF80F00100C5B2B2
:1008A000B9E7F3685B7923B1336829461B683046A2
:1008B0009847F3681E68002EF3D1284600F020FD0B
:1008C000304600F031FAD4F818340BB9009BA3601D
:1008D000002000F02BFADEE7D4F8104454B90D4B99
:1008E0000D480E49C01AC008000440F0020000F094
:1008F0005DF8D0E7236820469B689847E3681C684A
:10090000ECE7002587E700BF4C010020902600009F
:10091000580100202026000058260000D4260000A0
:100920002DE9F34704460E46924601A901221846D6
:100930009946FFF717FE1B4F10B3019D4FF00008BB
:10094000AA1CC84508EB020123D11748002100F07A
:10095000EFF980F31000000440EA1440E4006B1C3F
:1009600004F03804DBB2EDB244F0010407EB83037A
:10097000033544EA881444EA8624D86047F82540C1
:100980003B781BB1FFF7CCFE0028FBD102B0BDE8DD
:10099000F087C9B207EB81015AF82830CB6008F123
:1009A0000108CEE74C0100206805002000231A460C
:1009B000FFF7B6BF07B5CDE9002302236A46FFF76C
:1009C000AFFF03B05DF804FB30B50F4CD4F8102432
:1009D00003460020114631B9D96808714AB9C4F8F4
:1009E00010340A6030BDC9680D79854206D00968A7
:1009F000F1E7D26814680C601360F3E701300A284D
:100A0000E8D14FF0FF30EDE74C01002038B5084B3E
:100A10000125D3F810441D7004B938BDE3685D7139
:100A2000236820465B689847E3681C68F4E700BFCA
:100A30004C01002030B5C38885B004460D4633B163
:100A4000144A00921449154A284600F009FA217AFE
:100A500005291DD0637A4BB1A088FFF741FE104BEA
:100A6000104953F82020284600F0FAF9227A0E4B5C
:100A7000A08853F8222003920021FFF715FE039A65
:100A80000A490346284605B0BDE8304000F0E8B901
:100A900005B030BD1827000000270000F826000030
:100AA000842700001D270000A82700002027000041
:100AB00007B503460846197A052911D05B7A2BB190
:100AC000094A0A49019000F0CBF9019808490190C0
:100AD00000F0C6F9019803B05DF804EB00F0B5B979
:100AE000002AF8D0F2E700BF182700001D270000F9
:100AF000152700002DE9F04385B01F460C9D00230B
:100B000095F80C902B7306460C46904629463846BD
:100B1000FFF790FFB8F1060F09D8DFE808F00412DC
:100B2000181F283340003146284600F099F900226A
:100B300029463846FFF7BCFF85F80C9005B0BDE8A4
:100B4000F08322683146284600F08AF9EFE7D4E9BD
:100B500000233146284600F083F9E8E7A3680093B4
:100B60003146D4E90023284600F07AF9DFE7E3684C
:100B70000193A36800933146D4E90023284600F08E
:100B80006FF9D4E723690293E3680193A3680093A4
:100B90003146D4E90023284600F062F9C7E76369CB
:100BA000039323690293E3680193A368009331469A
:100BB000D4E90023284600F053F9B8E708292DE9C5
:100BC000F74F80460E4617461C463DD800251B7B36
:100BD0002573214610460193FFF72CFFDFF88CA008
:100BE000DFF88CB0AE4232D918F8052059462046BD
:100BF00000F036F90135082DF4D11B49DFF874A057
:100C0000DFF874B0204600F02BF94FF000094E4594
:100C100024D918F809507E2D1ED8284601F04CFC26
:100C2000002814BF2A462E225946204600F018F903
:100C300009F10109B9F1080FE9D10122214638462D
:100C4000FFF736FF019B237303B0BDE8F08F5146D9
:100C5000204600F005F9CDE72E22E5E75146204673
:100C600000F0FEF8E4E700BF342700003027000062
:100C70002A27000032270000362700001FB5002178
:100C8000039001AA44F20100CDE9011100F004F83B
:100C900005B05DF804FB000038B572B6FFF7B6FE8C
:100CA000FFF73EFD0028FBD1104B114C114D1249AE
:100CB000E41AE408240444F00100FFF777FED5F8B5
:100CC000F030DB0700D500BE0C4944F00200FFF70E
:100CD0006DFEBFF34F8FEA68094B02F4E0621343E5
:100CE000EB60BFF34F8F00BFFDE700BF2026000081
:100CF0005826000000ED00E0BC270000C8270000D7
:100D00000400FA0572B6024A136801331360704793
:100D100004060020034A1368013B136003B962B65E
:100D2000704700BF04060020FFF7ECBFFFF7F2BFDB
:100D300010B5034653E8000F0A4643E8002494F038
:100D4000000FF7D110BD10B5034653E8002F42EA5B
:100D5000010043E8000494F0000FF6D110BD10B577
:100D6000034653E8000F00EA010243E8002494F030
:100D7000000FF6D110BD10B5034653E8002F02EB6B
:100D8000010043E8000494F0000FF6D110BD10B547
:100D9000034653E8002FA2EB010043E8000494F05F
:100DA000000FF6D110BD0121FFF7CDBF0021FFF7E5
:100DB000D6BF10B590B1D0E9012301689B1ADBB210
:100DC0000A60013BDBB2FF2B026802D100201071E8
:100DD00010BD11684C1C14600B70F2E70E20F7E791
:100DE00038B504460020FFF79FFF2268636811684A
:100DF000994213D9481E106011F8013CE568218A18
:100E000001FB0355A36811791B1ADBB2994200D28A
:100E100013710020FFF78AFF284638BD0025F8E748
:100E200038B5054600200C46FFF77EFF2A68136898
:100E3000591C1160E968641A298AB4FBF1F41C702A
:100E4000BDE838400020FFF771BF826810B5044646
:100E50002AB143690168006998470023A36010BD67
:100E60000EB403B5039921B104AB01AA019300F0BC
:100E70006FF802B05DF804EB03B07047826830B4DD
:100E80000468551C8560A154D0E901329A4202D30E
:100E900030BCFFF7DABF30BC704700002DE9F84FD7
:100EA0009846DDE90A43154682460F460A464FF04A
:100EB0000109AA420FD2C14538BFC14613F0010B48
:100EC00001D16CB900240126B8F1010F1BD908F13A
:100ED000FF386E43F8E709F10109B2FBF5F2E8E7E4
:100EE0009B070ED5B8F1000F0CBF30262026A14578
:100EF000E9D2013C31465046FFF7C0FF002CF6D145
:100F0000E0E72026F3E7B7FBF6F39D42E1D9DFF8EF
:100F10003C80B7FBF6F3504618F8031006FB137736
:100F2000FFF7ACFF3346AB42B6FBF5F6F1D2BBF1AF
:100F3000000F02D00CB1A14501D3BDE8F88F2021EC
:100F40005046013CFFF79AFFF4E700BFD5270000A9
:100F50002DE9F74F054617468846002900F03E81E7
:100F600018F8011B49B92B7B002B00F0378128466C
:100F700003B0BDE8F04FFFF768BF252940F0B78008
:100F8000002698F800302D2B424608F1010823D0A6
:100F9000302B24D02B2B25D000242A2B02F1010149
:100FA00023D13B681A1D1B683A601C440A4613781B
:100FB0002E2B26D101324FF0000A104610F8011BEB
:100FC000A1F1300CBCF1090F1DD80A2303FB0A1351
:100FD000A3F1300A0246F0E746F00106D1E746F0F9
:100FE0000206CEE746F00406CBE711F8013CA3F178
:100FF00030000928DBD80A2202FB0434303C0A46C0
:10100000CBE74FF0000A12F8011B01F0FB00682843
:101010009046F8D0782909D86F290CD8632962D076
:1010200022D8252963D0582900F0888098F800300C
:10103000002B95D197E770390829F7D801A353F809
:1010400021F000BFB71100002D1000002D1000008E
:101050004D1100002D1000002B1100002D1000007C
:101060002D1000003D110000642901D06929DDD157
:101070003A68D2F80090111D89EAE9723960A2EB52
:10108000E9724FF0010B092A35DCD34538BFD3464E
:101090002CB1B9F1000F01DB720700D5013CB30799
:1010A00002D5BAF1000F03D0F00701D44CBB0024E5
:1010B000B9F1000F2DDAC9F100092D212846FFF7FB
:1010C000DDFE06F00302022A04D1BAF1000F01D1BD
:1010D0001CBB0024CDE9004653460A224946284657
:1010E000FFF7DCFEA2E73B681A1D19783A60284634
:1010F000FFF7C4FE9AE70A230BF1010BB2FBF3F2F0
:10110000C1E7A345D4D220212846013CFFF7B6FE13
:10111000CCE77107D5D52B21D0E7A345DAD2302112
:101120002846013CFFF7AAFED2E73968CDE9004620
:101130000A1D3A6053460A220968D0E739680A1D39
:101140003A60CDE9004653461022F5E73B681A1D88
:101150003A6016F00106D3F8009024D1B9F1000FDF
:1011600003D0484601F02BFA0646B4421DD809F1D7
:10117000FF3919F8011F00293FF458AF2846FFF73F
:101180007DFEF6E728460136FFF778FE19F80610CF
:101190000029F7D1A642BFF449AF20212846013CDF
:1011A000FFF76CFEF6E70026F0E720212846013C19
:1011B000FFF764FED9E73B681A1D3A6030212846E4
:1011C0001C68FFF75BFE78212846FFF757FE0022D8
:1011D0000823CDE900322146102280E703B0BDE8A4
:1011E000F08F00BF2DE9F84FB0F806A04579D2F88E
:1011F00000B09DF828900AFB05F5043D88460BEBEE
:101200000301A94203F1040488BFA5EB030BB4FB5F
:10121000FAF607460AFB1644C2F800B04EB9AAEB2C
:1012200004055D4528BF5D46BBF1000F04D1BDE854
:10123000F88F3F68013EF1E7043408EB06003C44B8
:101240002A46B9F1000F0DD02146ABEB050B01F09A
:1012500038F9DA452E443F6855464FF0000428BF60
:101260005D46E1E701462046EFE7FFF7A2BDF8B58E
:1012700046790146721E0546002393422D6803D32A
:101280000024A64202D8F8BD0133F6E70F682846CD
:10129000FFF7C6FD01343946F3E72DE9F843068A26
:1012A000CD1C0746FFF79CFD043E35440446B5FBC4
:1012B000F6F5F0B14FF48073EDB28380C680013D46
:1012C000076081464FF00008A84512D23846FFF764
:1012D00087FD064648B163790133637108F101085F
:1012E000C9F8000007608146EEE72046FFF7BFFF20
:1012F00034462046BDE8F88301210430FFF73BBDAA
:1013000010B5012104460430FFF741FDC0B220B9F9
:101310002046BDE81040FFF7AABF10BD1FB50392DD
:101320000022009203AAFFF75DFF05B05DF804FB01
:101330001FB503920122009203AAFFF753FF05B0E5
:101340005DF804FB836800225A60C3E904229A60B6
:10135000DA601A6070470000024B034A1B6810688D
:10136000184700BF1006002008060020014B1B682C
:10137000184700BF1406002000F1804000F5E0404F
:10138000002382B0036003680193019B02B07047A1
:1013900030B50A4B044693F823500820012200235D
:1013A000144203D0154207D00133DBB201384FEAB3
:1013B0004202F5D10B7030BD0720FCE71C0600206F
:1013C000054B93F82200431E012B03D9043818BFA4
:1013D00001207047002070471C0600202DE9F04FC7
:1013E00093B09A460DF1080C0AAF1C9D3B4B3E464C
:1013F000E046002403EB041E0134DEF8189548F89B
:10140000049B082CDEF81CE546F804EBF2D1D3F877
:10141000F065D3F8404601944FF0010E0024D3F854
:101420004496D3F84886C3F8FC4FC3F8FCEF2B4B27
:101430005CF804BB03EB041E0134CEF818B557F872
:1014400004BBCEF81CB5082CF2D1019CC3F8404671
:10145000F6B2234CC3F84496C3F84886C3F8F06547
:101460000026C4E90166E684256084F8240026820B
:10147000C3F8F015C3F8F42565B32322C3F800239D
:10148000174D164F002207EB021C20FA02F3DCF87E
:101490001845110113F0010301F1804114BFD64634
:1014A0009E4601F5E04124F0807402F101021ABF6A
:1014B000AE7CAB7E1E4644EA0E64082ACCF8184582
:1014C00005F10105C1F81435C1F81065DBD113B081
:1014D000BDE8F08FC3F80053D2E700BF00700040B2
:1014E0001C060020F0B5154F85B004460D460126B8
:1014F0000CB905B0F0BD94FAA4F2B2FA82F206FA81
:1015000002F3012D24EA03044FEAC2030CBF03F5E2
:101510008C7003F58E7000F1804303F5E0431B6887
:10152000002BE5D0FFF728FF3B688DF804608DF8AD
:1015300008208DF8095001A89847D9E71C0600201B
:1015400008B5114B93F822100246D1B9012083F857
:1015500022004FF48070FFF70FFF4FF48A70FFF7FF
:101560000BFF4FF48270FFF707FF084BC3F800131F
:10157000074B802018605201D2B283F80723084637
:1015800008BD0820FCE700BF1C06002000700040DA
:1015900000E100E02DE9F0470646FFF711FF0F4696
:1015A0000446002867D1DFF8D480014688F823007C
:1015B000102208F1120000F0ADFFDFF8C4E0204671
:1015C00021464FF00C0C4FF00109C3B2BB4204D3CB
:1015D0000CB188F8231000200DE00CFB03FA06EB99
:1015E0000A020130D57A21FA05F3DB0705D50CB1E3
:1015F00088F823100720BDE8F087537894781B0102
:10160000240204F4E06403F03003234316F80A4094
:1016100004F003042343D478240304F480542343C4
:101620001479240404F4E02423435479240504F4B5
:10163000801423439479240604F0807423430EEB32
:101640000514C4F818352B0103F1804303F5E0437A
:10165000D47992F808A0C3F814A5C3F8104508EB94
:101660000503547A9C7409FA05F5927A9A7629430F
:10167000C9B20124A9E71120BDE700BF1C06002064
:10168000007000402DE9FF4105460F46164698467A
:10169000FFF796FEE0B90DF10F012846FFF778FE3F
:1016A000044688B9331E18BF01233246CDF80080A6
:1016B00039462846FFF792FE064B9DF80F2083F827
:1016C0002520022283F82220204604B0BDE8F081C4
:1016D0001124F9E71C0600201A4B9A6810B552BB7A
:1016E00000F06042B2F1005F27D193F82540B1FBD2
:1016F000F4F204FB121212BB0AB2002A1FDD93F8A7
:101700002220052A05D8032A0AD8022A0DD008204B
:1017100010BD062AFBD10C4AC2F82C06C2F83016BE
:101720005A6822B1D981986003E08C4207D199812F
:1017300058600020ECE78520EAE71020E8E7092060
:10174000E6E700BF1C060020007000404A4A5368CC
:101750002DE9F041002B00F08C8092F82210022934
:1017600004D004292BD00820BDE8F0814349948996
:101770000120C1F80005C1F82C361368C1F83046C5
:101780002BB1032382F8223008600020ECE70860C8
:10179000D1F80031002BFBD04FF48070FFF7ECFD47
:1017A000364A01234B60D2F80431002BFBD04FF4B2
:1017B0008270FFF7E1FD0020C2F80005D4E72F4951
:1017C000146895890120C1F800053CB1052482F810
:1017D0002240C1F82C36C1F83056D5E7148A92F869
:1017E000257003EB4403C1F82C36C1F8307608604D
:1017F000D1F80031002BFBD04FF48070FFF7BCFD17
:1018000092F82900012350B3D1F8F415DFF86C8069
:10181000C9B203FA01F100268E4213D11749D1F85B
:101820000431002BFBD03C444FF48270A4B2FFF78C
:10183000A3FDAC4215D214821120104B0022C3F834
:10184000002591E74FF48470FFF796FD0123C8F857
:101850000430D8F80831002BFBD00136DCE74B60B0
:10186000DCE7936853600020D389108293819060F5
:10187000E3E7042078E700BF1C060020007000406A
:1018800010B50146FFF79CFDE8B9104C104A2160E5
:10189000072384F822300123C2F80035D36019B140
:1018A0001023C2F8043310BDD2F81031002BFBD046
:1018B0004FF48870FFF760FD00200123C2F8000597
:1018C00084F82230EFE71120EDE700BF1C0600206E
:1018D000007000407FB54B4D4B4CD5F800316BB3D9
:1018E0004FF48070FFF748FD94F82230052B06D0A6
:1018F000062B1BD0032B21D101236B601EE0042398
:101900008DF8043001A823689847D5F8F835A26807
:10191000DB0444BF01236B60062384F822302AB124
:10192000384BE189C3F82C26C3F83016A3682BB9CD
:1019300003238DF8043001A823689847314DD5F86A
:10194000143143B14FF48A70FFF716FDD5F83436E1
:10195000A3810023A360D5F80431A3B14FF48270B2
:10196000FFF70AFD636802930026A389ADF80C30E7
:101970008DF80460236801A8984794F82230032B5F
:1019800021D0062B25D094F826000021FFF7AAFDD0
:1019900094F827000121FFF7A5FD1A4AD2F810316B
:1019A0007BB14FF48870FFF7E7FC0023C2F80035E5
:1019B000012384F8223002238DF8043001A8236823
:1019C000984704B070BD0223C5F8006584F8223042
:1019D000D9E7A368E2896360A281A66033B194F875
:1019E0002830002BCFD001232B60CCE7C5F8003581
:1019F000042384F8223005238DF8043001A82368DD
:101A00009847C0E7007000401C06002000F18040AD
:101A1000002382B0036003680193019B02B070470A
:101A20004FF0804110B5D1F8003163B14FF48070B0
:101A3000FFF7ECFF0D4B58790122C1F8082310B9CC
:101A40005A711B6898474FF08042D2F8043163B155
:101A50004FF48270FFF7DAFF0223C2F80833034B1A
:101A6000BDE810401B680120184710BD4806002043
:101A70000023435082B043580193019B02B070474A
:101A80002DE9F041224E234FDFF88C8000244FF4E3
:101A90008035D7F80433A6F580412B4289B20CD0AB
:101AA000336853B1C7F848533846C7F80853FFF7AF
:101AB000DFFFD8F80030E0B298470134042C4FEA39
:101AC000450506F10406E4D11248D0F80433DA07DC
:101AD0000AD5D0F800313BB14FF48071FFF7C8FF51
:101AE0000D4B20461B6898470A48D0F804339B07E3
:101AF0000CD5D0F804314BB14FF48271FFF7B8FF29
:101B0000054BBDE8F0411B6805201847BDE8F08192
:101B100040410240004002405006002000F1804059
:101B200000F5C040002382B0036003680193019B6D
:101B300002B0704703681F2B83BF03F01F030360CD
:101B400001484FF0A04070470003005007B50190D6
:101B500001A8FFF7EFFF019B00EB8300D0F80037EF
:101B600023F44033C0F80037D0F8003743EA01418E
:101B7000C0F8001703B05DF804FB0000054B4FF000
:101B8000FF32072843F8202084BFC01880F84C207B
:101B9000704700BF5406002038B51E4991F85B30ED
:101BA000ABBB4FF6FF70FF245A09012A0CBF024657
:101BB0004FF0FF3203F01F05EA40D20748BFCA18B2
:101BC00003F1010348BF82F82440302BECD10024FC
:101BD000E0B20134FFF7D2FF092CF9D10E4B0022FD
:101BE000C1F855209A800D4BC02083F80603402091
:101BF00018604FF4BE70FFF791FF094B4FF00040A3
:101C0000C3F80403012381F85B30104638BD082077
:101C1000FCE700BF54060020A906002000E100E018
:101C200000600040F7B53D4F3B18044693F924305F
:101C3000002B71DA8B78C3F34003002B0BBF082510
:101C4000002509200820854202D1042003B0F0BD00
:101C500057F82560013647D138196EB247F825206C
:101C600080F8246013B97B1983F84C408B785A07AD
:101C70001AD4D8073AD501A80194FFF75BFF019B5E
:101C800000EB8300D0F8003723F00203C0F80037E0
:101C90002348E20804F0070C012303FA0CF310F8C0
:101CA00002C043EA0C03835488780B7810F00200DA
:101CB00028D0AD0005F1804505F5C0452402D5F8D2
:101CC000102522F44F3222F44072C5F810251B046F
:101CD000D5F8102504F47C5403F440331C4314431A
:101CE000C5F810450020B1E70135ACE701A84A78F6
:101CF0000194FFF71FFF019B03F5E073920040F88A
:101D00002320C5E7083E47FA86F797F8544044EA8F
:101D1000831387F8543099E7082097E7540600208A
:101D2000A906002073B5244D2E18044696F92420E8
:101D3000072A1DDD083A45FA82F595F854309B09CB
:101D4000032B10D1019001A8FFF7F4FE019BD0F8FE
:101D50001015D94001F001010231204602B0BDE862
:101D60007040FFF7F3BE012B0CBF02210321F4E703
:101D7000D3B2072B1DD8930003F1804303F5C04372
:101D8000D3F8100540F00100C3F8100502F140003F
:101D900040B2800080B2FFF7C1FE51B196F9243005
:101DA00055F823302BB1012303FA02F2034BC3F899
:101DB000042302B070BD00BF540600200060004044
:101DC0002DE9FF410024CDE90244534D4FF48072C8
:101DD000012102F1804303F5C04390B21B68012B3F
:101DE00006D1D5F804330B4202D0FFF797FE0C431F
:101DF0000432B2F5907F4FEA4101EAD1464BD3F865
:101E00007C31012B11D14FF4BE70FFF787FE4FF0EC
:101E1000A04344F00044D3F820250292C3F82025C3
:101E2000D3F820280392C3F82028E3B2D3B13B4F64
:101E300000250126344210D0AB0003F1804303F5A6
:101E4000C043D3F81005D3F8101557F8253023B147
:101E5000C1F30141C0F3052098470135082D4FEA31
:101E60004606E7D1002C4EDA2C4F2D4E97F9543010
:101E70005A1C3AD0C3F3C20104A80144DAB211F8E3
:101E8000081C03F03F04012503F0070305FA03F3E0
:101E900019422AD001A80194FFF74CFE019B03F5DB
:101EA000E07350F82330C3F30148B8F1020F0CBFC0
:101EB000032102212046FFF749FE01A80194FFF704
:101EC00039FE019B9D403B19C0F8205593F9243001
:101ED00057F823304BB19109032904D0B8F1020F10
:101EE00014D1012901D1204698474FF0A043D3F8DF
:101EF00020250292C3F82025D6F820350393C6F892
:101F000020351343B2D104B0BDE8F081B8F1030F1E
:101F1000EBD10229E6E700BF006000405406002034
:101F2000000300504FF0804337B50122C3F87825F5
:101F30004FF400410020FEF7A3FB08B1FEF79EFE20
:101F4000FEF7E2FA0D4C0E4D00F06EF80D4BE41A60
:101F5000E408240444F003040DF1060101A800F094
:101F600023F8BDF90630BDF9042029462046FEF7C6
:101F700021FDFEF7D5FB0028FBD1EDE75826000038
:101F80002D28000020260000064B1A6801321A6036
:101F90001A684FF47A7192FBF1F001FB10221A607B
:101FA000704700BFB006002030B5022285B005465C
:101FB0000C46002311460320FFF764FB08B1FEF72F
:101FC0005DFE17480221FFF787FB08B1FEF756FEBA
:101FD000FFF7BCFB0028FBD1124BD3F8402601923F
:101FE000D3F844260292D3F848260392C3F8FC0F94
:101FF000D3F8FC2F0122C3F8FC2F019AC3F8402626
:10200000029AC3F84426039AC3F84826044BB3F94E
:1020100000202A80B3F90230238005B030BD00BF14
:10202000B40600200070004007B5FFF7B5FD184B5F
:1020300001901A88ADF800209B78164A8DF802307E
:1020400069460620FFF7EEFD012101900620FFF70B
:1020500069FE0620FFF774FA0190019808B1FEF7B7
:102060000DFE0D4801230221C3708170C37381737B
:10207000FFF790FA0190019808B1FEF7FFFD0020EC
:10208000FFF7FEFB0028FAD103B05DF804FB00BFA8
:1020900045280000891F0000080000200369C2686D
:1020A00093429CBF80681B18013B981A70472DE92A
:1020B000F843D0E902940546A9EB0408406890452E
:1020C00020440F46144404D900F0FBF9EC60BDE84D
:1020D000F8834246A4EB090400F0F3F9686822464D
:1020E00007EB0801F0E72DE9F843C5680646894685
:1020F00017464FF000083469B3687068A54228BFDE
:10210000E418013C621B5C1BBC4228BF3C46944265
:1021100028BF144649462844224600F0D2F9B36845
:102120002544AB4208BF00253F1BA044A144F560F5
:10213000E1D14046BDE8F88310B5114C114AA261C7
:102140000223C4E90433104BE361A2644FF400732B
:102150000E4A0F492362E26400231022E01DA362AD
:102160006362E362A3656365E365226500F005FAD7
:102170000849204600F001FA2023A37110BD00BFDA
:10218000B806002048280000400700203007002043
:10219000512800005528000070B5164B182400FB8C
:1021A00004451D4404FB00331646DC6A012C0ED0A6
:1021B000022C18D0E4B92846FFF770FF864204D8F5
:1021C00032462846FFF773FF3446204670BD284646
:1021D000FFF764FF8642344628BF0446224628465D
:1021E000FFF765FFF1E72846BDE87040FFF77BBFCA
:1021F0000024EAE7B8060020FFF79EBF4FF08053A7
:10220000D3F83001A0F1080358425841704700004C
:102210004FF08053D3F83021082A06D1D3F8343157
:10222000032B02D8024AD05C70470020704700BFE1
:102230005C28000008B5FFF7E1FF40B14FF0804394
:102240000022C3F80C21C3F81021C3F83825FFF78A
:10225000D5FF002846D04FF08052614BD2F80414CD
:10226000C3F82015D2F80814C3F82415D2F80C14BA
:10227000C3F82815D2F81014C3F82C15D2F814148A
:10228000C3F83015D2F81814C3F83415D2F81C145A
:10229000C3F84015D2F82014C3F84415D2F824141A
:1022A000C3F84815D2F82814C3F84C15D2F82C14EA
:1022B000C3F85015D2F83014C3F85415D2F83414BA
:1022C000C3F86015D2F83814C3F86415D2F83C147A
:1022D000C3F86815D2F84014C3F86C15D2F844243A
:1022E000C3F87025FFF794FF18B13E4B3E4AC3F880
:1022F0008C26FFF78DFF18B13C4BFB22C3F8182545
:10230000FFF786FF70B14FF080414FF08053D1F856
:10231000E42ED3F8583222F00F0203F00F031343D8
:10232000C1F8E43EFFF774FF20B1314B4FF4007267
:10233000C3F84026FFF762FF48B14FF08043D3F85F
:102340000024D20744BF6FF00102C3F80024294AD9
:10235000D2F8883043F47003C2F88830BFF34F8F4F
:10236000BFF36F8F4FF01023D3F80022002A03DB56
:10237000D3F80432002B2EDA1F4B0122C3F80425B8
:10238000D3F80024002AFBD04FF010221221C2F80B
:102390000012D3F80024002AFBD04FF010231222A1
:1023A000C3F80422144BD3F80024002AFBD00022E7
:1023B000C3F80425D3F80024002AFBD0BFF34F8FC5
:1023C0000C490E4BCA6802F4E0621343CB60BFF3C2
:1023D0004F8F00BFFDE70A4B0A4A1A6008BD00BFD5
:1023E00000C00040005000404881030000F0004061
:1023F0000090024000ED00E000E001400400FA051A
:10240000200000200090D0037F2805D8034B185CE3
:10241000034B5B5C18407047002070476C2800003D
:10242000EC280000A0F16103192B98BF20387047F9
:10243000A0F14103192B98BF203070477F2805D8A1
:10244000034B185C034B5B5C1840704700207047DF
:102450006C280000EC280000A0F16103192B98BF44
:1024600020387047A0F14103192B98BF20307047E6
:102470007F299ABF017001206FF02E0070475AB17A
:102480000A787F2A0AD800B10260002119605960D9
:10249000501A18BF01207047002070476FF02E00BF
:1024A0007047000008B5034B5B689B681B68984742
:1024B00008BD00BF2400002008B50921FFF7F2FF86
:1024C00008BD844640EA010313F0030F18D1844687
:1024D000202A0BD32DE9F007B1E8F807A0E8F807A8
:1024E000A2F12002202AF7D2BDE8F007042A07D380
:1024F00051F8043B40F8043BA2F10402042AF7D24D
:10250000002A05D011F8013B00F8013B013AF9D14E
:10251000604670478446002A2DD010F0030F04D087
:1025200000F8011B013A26D0F7E7C9B241EA0121C0
:1025300041EA0141202A12D3A2F120022DE9F00341
:102540000B460C460D460E460F4688468946A0E8C7
:10255000FA03203AFBD2BDE8F00320320BD0042A64
:1025600005D340F8041B043A05D0042AF9D200F838
:10257000011B013AFBD160467047024610F0030F81
:1025800016D111F0030F13D12DE9F0004FF00137F0
:102590004FF0803351F8044BA4EB070525EA0405FE
:1025A0001D4002D142F8044BF4E7A1F10401F0BC54
:1025B00011F8013B02F8013B002BF9D1704700F103
:1025C000010110F0030F11D010F8012B002A23D0C5
:1025D00010F0030F0AD010F8012B002A1CD010F0C5
:1025E000030F03D010F8012B002A15D02DE970003D
:1025F0004FF001324FF0803350F8044BA4EB02054A
:1026000025EA04051D4000D1F6E7A0F1040070BCE6
:0E26100010F8012B002AFBD1A0EB010070474F
:10262000162800000000000026280000000000001E
:1026300001280000000000001C280000000000002D
:1026400005280000000000000B280000000000002A
:102650001028000000000000E52600000000030331
:10266000EE2700000000000020280000000000000D
:10267000E527000000000000F8270000000000002F
:10268000B826000000000000C42600000000002062
:102690007C000020440100204C0100208400002028
:0426A000180000001E
:1026A4000000000000000000000000000338FDD816
:1026B40070470000D503000041040000D10300006E
:1026C4007274745F6C6F675F6261636B656E6400E4
:1026D4004261636B656E647320666C7573686564D0
:1026E40000617070000000006C0500207F00000095
:1026F400EC0500201B5B313B33316D0025734C6FBF
:1027040067732064726F70706564202825642925BE
:10271400730D0A001B5B306D002573003C25733E6E
:102724002025733A20002025303278002020200014
:102734007C002563001B5B313B33306D001B5B3138
:102744003B33326D001B5B313B33336D001B5B311C
:102754003B33346D001B5B313B33356D001B5B3108
:102764003B33366D001B5B313B33376D0077617251
:102774006E696E6700696E666F00646562756700F6
:102784001827000039270000F82600004127000020
:102794004927000051270000592700006127000045
:1027A4006927000000000000C22700007127000014
:1027B400792700007E270000466174616C206572F1
:1027C400726F720053797374656D207265736574EA
:1027D4000030313233343536373839414243444599
:1027E400467077725F6D676D74006170705F7469B5
:1027F4006D657200736F72746C6973740050525318
:1028040000534141444300554152540055415254F0
:102814004500434C4F434B0052544300636C6F6379
:102824006B004750494F544500785F76616C75657D
:102834003A20256420795F76616C75653A202564B9
:10284400000200025465726D696E616C005254544A
:102854000053454747455200010000004300000073
:10286400504F5349580000002020202020202020D1
:1028740020682828282820202020202020202020EC
:10288400202020202020202048101010101010108C
:102894001010101010101010848484848484848494
:1028A40084841010101010101081818181818101A5
:1028B4000101010101010101010101010101010104
:1028C4000101011010101010108282828282820293
:1028D40002020202020202020202020202020202D4
:1028E4000202021010101020000703200417020136
:1028F4000857104080000000602800006429000090
:10290400782A000053756E004D6F6E005475650093
:102914005765640054687500467269005361740019
:10292400000000004A616E00466562004D6172005D
:10293400417072004D6179004A756E004A756C00F1
:1029440041756700536570004F6374004E6F7600E5
:102954004465630000000000414D00504D0000003C
:102964009C2A0000982A0000982A0000982A000057
:10297400982A0000982A0000982A0000982A00004B
:10298400982A0000982A0000FFFFFFFFFFFFFFFFC7
:10299400FFFFFFFFFFFF0000D82900000829000007
:1029A400142A0000282900005C290000BC2900002A
:1029B4006C2A0000C8290000256D2F25642F257975
:1029C4000000000025612025622025652025542073
:1029D4002559000053756E646179004D6F6E646112
:1029E400790054756573646179005765646E657325
:1029F4006461790054687572736461790046726920
:102A04006461790053617475726461790000000037
:102A14004A616E7561727900466562727561727998
:102A2400004D6172636800417072696C004D617998
:102A3400004A756E65004A756C7900417567757357
:102A4400740053657074656D626572004F63746FD2
:102A5400626572004E6F76656D62657200446563EF
:102A6400656D62657200000025483A254D3A25538C
:102A74000000000009240000252400003124000087
:102A84003D24000059240000652400007124000046
:0A2A94007F240000000000002E0067
:102AA00000000000FF000000000000000201000024
:102AB0000001020000000000020100000003040108
:102AC0000090D003FC280000FC280000FC28000037
:082AD000FC280000FC280000B6
:040000030000037581
:00000001FF
